{
  "contractName": "AXY721",
  "abi": [
    {
      "inputs": [],
      "stateMutability": "nonpayable",
      "type": "constructor"
    },
    {
      "anonymous": false,
      "inputs": [
        {
          "indexed": true,
          "internalType": "address",
          "name": "owner",
          "type": "address"
        },
        {
          "indexed": true,
          "internalType": "address",
          "name": "approved",
          "type": "address"
        },
        {
          "indexed": true,
          "internalType": "uint256",
          "name": "tokenId",
          "type": "uint256"
        }
      ],
      "name": "Approval",
      "type": "event"
    },
    {
      "anonymous": false,
      "inputs": [
        {
          "indexed": true,
          "internalType": "address",
          "name": "owner",
          "type": "address"
        },
        {
          "indexed": true,
          "internalType": "address",
          "name": "operator",
          "type": "address"
        },
        {
          "indexed": false,
          "internalType": "bool",
          "name": "approved",
          "type": "bool"
        }
      ],
      "name": "ApprovalForAll",
      "type": "event"
    },
    {
      "anonymous": false,
      "inputs": [
        {
          "indexed": true,
          "internalType": "address",
          "name": "previousOwner",
          "type": "address"
        },
        {
          "indexed": true,
          "internalType": "address",
          "name": "newOwner",
          "type": "address"
        }
      ],
      "name": "OwnershipTransferred",
      "type": "event"
    },
    {
      "anonymous": false,
      "inputs": [
        {
          "indexed": true,
          "internalType": "address",
          "name": "from",
          "type": "address"
        },
        {
          "indexed": true,
          "internalType": "address",
          "name": "to",
          "type": "address"
        },
        {
          "indexed": true,
          "internalType": "uint256",
          "name": "tokenId",
          "type": "uint256"
        }
      ],
      "name": "Transfer",
      "type": "event"
    },
    {
      "inputs": [
        {
          "internalType": "uint256",
          "name": "",
          "type": "uint256"
        }
      ],
      "name": "_tokenURImap",
      "outputs": [
        {
          "internalType": "string",
          "name": "",
          "type": "string"
        }
      ],
      "stateMutability": "view",
      "type": "function"
    },
    {
      "inputs": [
        {
          "internalType": "address",
          "name": "to",
          "type": "address"
        },
        {
          "internalType": "uint256",
          "name": "tokenId",
          "type": "uint256"
        }
      ],
      "name": "approve",
      "outputs": [],
      "stateMutability": "nonpayable",
      "type": "function"
    },
    {
      "inputs": [
        {
          "internalType": "address",
          "name": "owner",
          "type": "address"
        }
      ],
      "name": "balanceOf",
      "outputs": [
        {
          "internalType": "uint256",
          "name": "",
          "type": "uint256"
        }
      ],
      "stateMutability": "view",
      "type": "function"
    },
    {
      "inputs": [],
      "name": "baseURI",
      "outputs": [
        {
          "internalType": "string",
          "name": "",
          "type": "string"
        }
      ],
      "stateMutability": "view",
      "type": "function"
    },
    {
      "inputs": [],
      "name": "currentPublicTokenID",
      "outputs": [
        {
          "internalType": "uint256",
          "name": "",
          "type": "uint256"
        }
      ],
      "stateMutability": "view",
      "type": "function"
    },
    {
      "inputs": [
        {
          "internalType": "uint256",
          "name": "tokenId",
          "type": "uint256"
        }
      ],
      "name": "getApproved",
      "outputs": [
        {
          "internalType": "address",
          "name": "",
          "type": "address"
        }
      ],
      "stateMutability": "view",
      "type": "function"
    },
    {
      "inputs": [],
      "name": "hardLimit",
      "outputs": [
        {
          "internalType": "uint256",
          "name": "",
          "type": "uint256"
        }
      ],
      "stateMutability": "view",
      "type": "function"
    },
    {
      "inputs": [
        {
          "internalType": "address",
          "name": "owner",
          "type": "address"
        },
        {
          "internalType": "address",
          "name": "operator",
          "type": "address"
        }
      ],
      "name": "isApprovedForAll",
      "outputs": [
        {
          "internalType": "bool",
          "name": "",
          "type": "bool"
        }
      ],
      "stateMutability": "view",
      "type": "function"
    },
    {
      "inputs": [],
      "name": "name",
      "outputs": [
        {
          "internalType": "string",
          "name": "",
          "type": "string"
        }
      ],
      "stateMutability": "view",
      "type": "function"
    },
    {
      "inputs": [],
      "name": "owner",
      "outputs": [
        {
          "internalType": "address",
          "name": "",
          "type": "address"
        }
      ],
      "stateMutability": "view",
      "type": "function"
    },
    {
      "inputs": [
        {
          "internalType": "uint256",
          "name": "tokenId",
          "type": "uint256"
        }
      ],
      "name": "ownerOf",
      "outputs": [
        {
          "internalType": "address",
          "name": "",
          "type": "address"
        }
      ],
      "stateMutability": "view",
      "type": "function"
    },
    {
      "inputs": [],
      "name": "renounceOwnership",
      "outputs": [],
      "stateMutability": "nonpayable",
      "type": "function"
    },
    {
      "inputs": [
        {
          "internalType": "address",
          "name": "from",
          "type": "address"
        },
        {
          "internalType": "address",
          "name": "to",
          "type": "address"
        },
        {
          "internalType": "uint256",
          "name": "tokenId",
          "type": "uint256"
        }
      ],
      "name": "safeTransferFrom",
      "outputs": [],
      "stateMutability": "nonpayable",
      "type": "function"
    },
    {
      "inputs": [
        {
          "internalType": "address",
          "name": "from",
          "type": "address"
        },
        {
          "internalType": "address",
          "name": "to",
          "type": "address"
        },
        {
          "internalType": "uint256",
          "name": "tokenId",
          "type": "uint256"
        },
        {
          "internalType": "bytes",
          "name": "_data",
          "type": "bytes"
        }
      ],
      "name": "safeTransferFrom",
      "outputs": [],
      "stateMutability": "nonpayable",
      "type": "function"
    },
    {
      "inputs": [],
      "name": "salePrice",
      "outputs": [
        {
          "internalType": "uint256",
          "name": "",
          "type": "uint256"
        }
      ],
      "stateMutability": "view",
      "type": "function"
    },
    {
      "inputs": [],
      "name": "saleTill",
      "outputs": [
        {
          "internalType": "uint256",
          "name": "",
          "type": "uint256"
        }
      ],
      "stateMutability": "view",
      "type": "function"
    },
    {
      "inputs": [
        {
          "internalType": "address",
          "name": "operator",
          "type": "address"
        },
        {
          "internalType": "bool",
          "name": "approved",
          "type": "bool"
        }
      ],
      "name": "setApprovalForAll",
      "outputs": [],
      "stateMutability": "nonpayable",
      "type": "function"
    },
    {
      "inputs": [
        {
          "internalType": "bytes4",
          "name": "interfaceId",
          "type": "bytes4"
        }
      ],
      "name": "supportsInterface",
      "outputs": [
        {
          "internalType": "bool",
          "name": "",
          "type": "bool"
        }
      ],
      "stateMutability": "view",
      "type": "function"
    },
    {
      "inputs": [],
      "name": "symbol",
      "outputs": [
        {
          "internalType": "string",
          "name": "",
          "type": "string"
        }
      ],
      "stateMutability": "view",
      "type": "function"
    },
    {
      "inputs": [
        {
          "internalType": "address",
          "name": "from",
          "type": "address"
        },
        {
          "internalType": "address",
          "name": "to",
          "type": "address"
        },
        {
          "internalType": "uint256",
          "name": "tokenId",
          "type": "uint256"
        }
      ],
      "name": "transferFrom",
      "outputs": [],
      "stateMutability": "nonpayable",
      "type": "function"
    },
    {
      "inputs": [
        {
          "internalType": "address",
          "name": "newOwner",
          "type": "address"
        }
      ],
      "name": "transferOwnership",
      "outputs": [],
      "stateMutability": "nonpayable",
      "type": "function"
    },
    {
      "inputs": [
        {
          "internalType": "uint256",
          "name": "_forDays",
          "type": "uint256"
        }
      ],
      "name": "startSale",
      "outputs": [],
      "stateMutability": "nonpayable",
      "type": "function"
    },
    {
      "inputs": [],
      "name": "stopSale",
      "outputs": [],
      "stateMutability": "nonpayable",
      "type": "function"
    },
    {
      "inputs": [
        {
          "internalType": "address",
          "name": "_to",
          "type": "address"
        },
        {
          "internalType": "uint256",
          "name": "_quantity",
          "type": "uint256"
        }
      ],
      "name": "mintAXY",
      "outputs": [],
      "stateMutability": "payable",
      "type": "function"
    },
    {
      "inputs": [
        {
          "internalType": "uint256",
          "name": "tokenId",
          "type": "uint256"
        }
      ],
      "name": "tokenURI",
      "outputs": [
        {
          "internalType": "string",
          "name": "",
          "type": "string"
        }
      ],
      "stateMutability": "view",
      "type": "function"
    },
    {
      "inputs": [
        {
          "internalType": "string",
          "name": "_uri",
          "type": "string"
        }
      ],
      "name": "setURI",
      "outputs": [],
      "stateMutability": "nonpayable",
      "type": "function"
    },
    {
      "inputs": [
        {
          "internalType": "uint256",
          "name": "_price",
          "type": "uint256"
        }
      ],
      "name": "setPrice",
      "outputs": [],
      "stateMutability": "nonpayable",
      "type": "function"
    }
  ],
  "bytecode": "0x60806040526040518060400160405280601b81526020017f68747470733a2f2f666c6f79646e66742e636f6d2f746f6b656e2f0000000000815250600790805190602001906200005192919062000364565b5060646009556000600a556040518060400160405280600981526020017f41585920546f6b656e0000000000000000000000000000000000000000000000815250600b9080519060200190620000a992919062000364565b506040518060400160405280600381526020017f4158590000000000000000000000000000000000000000000000000000000000815250600c9080519060200190620000f792919062000364565b503480156200010557600080fd5b50600b8054620001159062000414565b80601f0160208091040260200160405190810160405280929190818152602001828054620001439062000414565b8015620001945780601f10620001685761010080835404028352916020019162000194565b820191906000526020600020905b8154815290600101906020018083116200017657829003601f168201915b5050505050600c8054620001a89062000414565b80601f0160208091040260200160405190810160405280929190818152602001828054620001d69062000414565b8015620002275780601f10620001fb5761010080835404028352916020019162000227565b820191906000526020600020905b8154815290600101906020018083116200020957829003601f168201915b505050505081600090805190602001906200024492919062000364565b5080600190805190602001906200025d92919062000364565b50505062000280620002746200029660201b60201c565b6200029e60201b60201c565b600a6008819055506000600d8190555062000479565b600033905090565b6000600660009054906101000a900473ffffffffffffffffffffffffffffffffffffffff16905081600660006101000a81548173ffffffffffffffffffffffffffffffffffffffff021916908373ffffffffffffffffffffffffffffffffffffffff1602179055508173ffffffffffffffffffffffffffffffffffffffff168173ffffffffffffffffffffffffffffffffffffffff167f8be0079c531659141344cd1fd0a4f28419497f9722a3daafe3b4186f6b6457e060405160405180910390a35050565b828054620003729062000414565b90600052602060002090601f016020900481019282620003965760008555620003e2565b82601f10620003b157805160ff1916838001178555620003e2565b82800160010185558215620003e2579182015b82811115620003e1578251825591602001919060010190620003c4565b5b509050620003f19190620003f5565b5090565b5b8082111562000410576000816000905550600101620003f6565b5090565b600060028204905060018216806200042d57607f821691505b602082108114156200044457620004436200044a565b5b50919050565b7f4e487b7100000000000000000000000000000000000000000000000000000000600052602260045260246000fd5b61383780620004896000396000f3fe60806040526004361061019c5760003560e01c8063715018a6116100ec578063b88d4fde1161008a578063e36b0b3711610064578063e36b0b37146105b7578063e985e9c5146105ce578063f2fde38b1461060b578063f51f96dd146106345761019c565b8063b88d4fde14610526578063c41f6d5f1461054f578063c87b56dd1461057a5761019c565b806391b7f5ed116100c657806391b7f5ed1461048d57806395d89b41146104b6578063a22cb465146104e1578063ad71ff8a1461050a5761019c565b8063715018a614610420578063798c45ea146104375780638da5cb5b146104625761019c565b806323b872dd1161015957806342842e0e1161013357806342842e0e146103525780636352211e1461037b5780636c0360eb146103b857806370a08231146103e35761019c565b806323b872dd146102c157806331bafc7d146102ea5780633609a8d9146103275761019c565b806301ffc9a7146101a157806302fe5305146101de57806306fdde0314610207578063081812fc14610232578063095ea7b31461026f5780630e3ab61d14610298575b600080fd5b3480156101ad57600080fd5b506101c860048036038101906101c391906124f6565b61065f565b6040516101d59190612a7f565b60405180910390f35b3480156101ea57600080fd5b5061020560048036038101906102009190612550565b610741565b005b34801561021357600080fd5b5061021c6107d7565b6040516102299190612a9a565b60405180910390f35b34801561023e57600080fd5b5061025960048036038101906102549190612599565b610869565b6040516102669190612a18565b60405180910390f35b34801561027b57600080fd5b50610296600480360381019061029191906124b6565b6108ee565b005b3480156102a457600080fd5b506102bf60048036038101906102ba9190612599565b610a06565b005b3480156102cd57600080fd5b506102e860048036038101906102e391906123a0565b610af1565b005b3480156102f657600080fd5b50610311600480360381019061030c9190612599565b610b51565b60405161031e9190612a9a565b60405180910390f35b34801561033357600080fd5b5061033c610bf1565b6040516103499190612d5c565b60405180910390f35b34801561035e57600080fd5b50610379600480360381019061037491906123a0565b610bf7565b005b34801561038757600080fd5b506103a2600480360381019061039d9190612599565b610c17565b6040516103af9190612a18565b60405180910390f35b3480156103c457600080fd5b506103cd610cc9565b6040516103da9190612a9a565b60405180910390f35b3480156103ef57600080fd5b5061040a60048036038101906104059190612333565b610d57565b6040516104179190612d5c565b60405180910390f35b34801561042c57600080fd5b50610435610e0f565b005b34801561044357600080fd5b5061044c610e97565b6040516104599190612d5c565b60405180910390f35b34801561046e57600080fd5b50610477610e9d565b6040516104849190612a18565b60405180910390f35b34801561049957600080fd5b506104b460048036038101906104af9190612599565b610ec7565b005b3480156104c257600080fd5b506104cb610f4d565b6040516104d89190612a9a565b60405180910390f35b3480156104ed57600080fd5b5061050860048036038101906105039190612476565b610fdf565b005b610524600480360381019061051f91906124b6565b611160565b005b34801561053257600080fd5b5061054d600480360381019061054891906123f3565b6112fc565b005b34801561055b57600080fd5b5061056461135e565b6040516105719190612d5c565b60405180910390f35b34801561058657600080fd5b506105a1600480360381019061059c9190612599565b611364565b6040516105ae9190612a9a565b60405180910390f35b3480156105c357600080fd5b506105cc61140c565b005b3480156105da57600080fd5b506105f560048036038101906105f09190612360565b6114d6565b6040516106029190612a7f565b60405180910390f35b34801561061757600080fd5b50610632600480360381019061062d9190612333565b61156a565b005b34801561064057600080fd5b50610649611662565b6040516106569190612d5c565b60405180910390f35b60007f80ac58cd000000000000000000000000000000000000000000000000000000007bffffffffffffffffffffffffffffffffffffffffffffffffffffffff1916827bffffffffffffffffffffffffffffffffffffffffffffffffffffffff1916148061072a57507f5b5e139f000000000000000000000000000000000000000000000000000000007bffffffffffffffffffffffffffffffffffffffffffffffffffffffff1916827bffffffffffffffffffffffffffffffffffffffffffffffffffffffff1916145b8061073a575061073982611668565b5b9050919050565b6107496116d2565b73ffffffffffffffffffffffffffffffffffffffff16610767610e9d565b73ffffffffffffffffffffffffffffffffffffffff16146107bd576040517f08c379a00000000000000000000000000000000000000000000000000000000081526004016107b490612c9c565b60405180910390fd5b80600790805190602001906107d3929190612147565b5050565b6060600080546107e690613021565b80601f016020809104026020016040519081016040528092919081815260200182805461081290613021565b801561085f5780601f106108345761010080835404028352916020019161085f565b820191906000526020600020905b81548152906001019060200180831161084257829003601f168201915b5050505050905090565b6000610874826116da565b6108b3576040517f08c379a00000000000000000000000000000000000000000000000000000000081526004016108aa90612c7c565b60405180910390fd5b6004600083815260200190815260200160002060009054906101000a900473ffffffffffffffffffffffffffffffffffffffff169050919050565b60006108f982610c17565b90508073ffffffffffffffffffffffffffffffffffffffff168373ffffffffffffffffffffffffffffffffffffffff16141561096a576040517f08c379a000000000000000000000000000000000000000000000000000000000815260040161096190612cfc565b60405180910390fd5b8073ffffffffffffffffffffffffffffffffffffffff166109896116d2565b73ffffffffffffffffffffffffffffffffffffffff1614806109b857506109b7816109b26116d2565b6114d6565b5b6109f7576040517f08c379a00000000000000000000000000000000000000000000000000000000081526004016109ee90612bfc565b60405180910390fd5b610a018383611746565b505050565b610a0e6116d2565b73ffffffffffffffffffffffffffffffffffffffff16610a2c610e9d565b73ffffffffffffffffffffffffffffffffffffffff1614610a82576040517f08c379a0000000000000000000000000000000000000000000000000000000008152600401610a7990612c9c565b60405180910390fd5b60006201518082610a939190612edd565b905062278d00811115610adb576040517f08c379a0000000000000000000000000000000000000000000000000000000008152600401610ad290612bdc565b60405180910390fd5b8042610ae79190612e56565b600d819055505050565b610b02610afc6116d2565b826117ff565b610b41576040517f08c379a0000000000000000000000000000000000000000000000000000000008152600401610b3890612d3c565b60405180910390fd5b610b4c8383836118dd565b505050565b600e6020528060005260406000206000915090508054610b7090613021565b80601f0160208091040260200160405190810160405280929190818152602001828054610b9c90613021565b8015610be95780601f10610bbe57610100808354040283529160200191610be9565b820191906000526020600020905b815481529060010190602001808311610bcc57829003601f168201915b505050505081565b600d5481565b610c12838383604051806020016040528060008152506112fc565b505050565b6000806002600084815260200190815260200160002060009054906101000a900473ffffffffffffffffffffffffffffffffffffffff169050600073ffffffffffffffffffffffffffffffffffffffff168173ffffffffffffffffffffffffffffffffffffffff161415610cc0576040517f08c379a0000000000000000000000000000000000000000000000000000000008152600401610cb790612c3c565b60405180910390fd5b80915050919050565b60078054610cd690613021565b80601f0160208091040260200160405190810160405280929190818152602001828054610d0290613021565b8015610d4f5780601f10610d2457610100808354040283529160200191610d4f565b820191906000526020600020905b815481529060010190602001808311610d3257829003601f168201915b505050505081565b60008073ffffffffffffffffffffffffffffffffffffffff168273ffffffffffffffffffffffffffffffffffffffff161415610dc8576040517f08c379a0000000000000000000000000000000000000000000000000000000008152600401610dbf90612c1c565b60405180910390fd5b600360008373ffffffffffffffffffffffffffffffffffffffff1673ffffffffffffffffffffffffffffffffffffffff168152602001908152602001600020549050919050565b610e176116d2565b73ffffffffffffffffffffffffffffffffffffffff16610e35610e9d565b73ffffffffffffffffffffffffffffffffffffffff1614610e8b576040517f08c379a0000000000000000000000000000000000000000000000000000000008152600401610e8290612c9c565b60405180910390fd5b610e956000611b39565b565b600a5481565b6000600660009054906101000a900473ffffffffffffffffffffffffffffffffffffffff16905090565b610ecf6116d2565b73ffffffffffffffffffffffffffffffffffffffff16610eed610e9d565b73ffffffffffffffffffffffffffffffffffffffff1614610f43576040517f08c379a0000000000000000000000000000000000000000000000000000000008152600401610f3a90612c9c565b60405180910390fd5b8060088190555050565b606060018054610f5c90613021565b80601f0160208091040260200160405190810160405280929190818152602001828054610f8890613021565b8015610fd55780601f10610faa57610100808354040283529160200191610fd5565b820191906000526020600020905b815481529060010190602001808311610fb857829003601f168201915b5050505050905090565b610fe76116d2565b73ffffffffffffffffffffffffffffffffffffffff168273ffffffffffffffffffffffffffffffffffffffff161415611055576040517f08c379a000000000000000000000000000000000000000000000000000000000815260040161104c90612b7c565b60405180910390fd5b80600560006110626116d2565b73ffffffffffffffffffffffffffffffffffffffff1673ffffffffffffffffffffffffffffffffffffffff16815260200190815260200160002060008473ffffffffffffffffffffffffffffffffffffffff1673ffffffffffffffffffffffffffffffffffffffff16815260200190815260200160002060006101000a81548160ff0219169083151502179055508173ffffffffffffffffffffffffffffffffffffffff1661110f6116d2565b73ffffffffffffffffffffffffffffffffffffffff167f17307eab39ab6107e8899845ad3d59bd9653f200f220920489ca2b5937696c31836040516111549190612a7f565b60405180910390a35050565b600d5442106111a4576040517f08c379a000000000000000000000000000000000000000000000000000000000815260040161119b90612d1c565b60405180910390fd5b600073ffffffffffffffffffffffffffffffffffffffff168273ffffffffffffffffffffffffffffffffffffffff161415611214576040517f08c379a000000000000000000000000000000000000000000000000000000000815260040161120b90612b9c565b60405180910390fd5b806008546112229190612edd565b341015801561123f5750606481600a5461123c9190612e56565b11155b61127e576040517f08c379a000000000000000000000000000000000000000000000000000000000815260040161127590612abc565b60405180910390fd5b6000600190505b8181116112f757600a600081548092919061129f90613084565b91905055506112b083600a54611bff565b6112bb600a54611364565b600e6000600a54815260200190815260200160002090805190602001906112e3929190612147565b5080806112ef90613084565b915050611285565b505050565b61130d6113076116d2565b836117ff565b61134c576040517f08c379a000000000000000000000000000000000000000000000000000000000815260040161134390612d3c565b60405180910390fd5b61135884848484611c0d565b50505050565b60095481565b606061136f826116da565b6113ae576040517f08c379a00000000000000000000000000000000000000000000000000000000081526004016113a590612cdc565b60405180910390fd5b6000600780546113bd90613021565b9050116113d95760405180602001604052806000815250611405565b60076113e483611c69565b6040516020016113f59291906129f4565b6040516020818303038152906040525b9050919050565b6114146116d2565b73ffffffffffffffffffffffffffffffffffffffff16611432610e9d565b73ffffffffffffffffffffffffffffffffffffffff1614611488576040517f08c379a000000000000000000000000000000000000000000000000000000000815260040161147f90612c9c565b60405180910390fd5b600d5442106114cc576040517f08c379a00000000000000000000000000000000000000000000000000000000081526004016114c390612b1c565b60405180910390fd5b6000600d81905550565b6000600560008473ffffffffffffffffffffffffffffffffffffffff1673ffffffffffffffffffffffffffffffffffffffff16815260200190815260200160002060008373ffffffffffffffffffffffffffffffffffffffff1673ffffffffffffffffffffffffffffffffffffffff16815260200190815260200160002060009054906101000a900460ff16905092915050565b6115726116d2565b73ffffffffffffffffffffffffffffffffffffffff16611590610e9d565b73ffffffffffffffffffffffffffffffffffffffff16146115e6576040517f08c379a00000000000000000000000000000000000000000000000000000000081526004016115dd90612c9c565b60405180910390fd5b600073ffffffffffffffffffffffffffffffffffffffff168173ffffffffffffffffffffffffffffffffffffffff161415611656576040517f08c379a000000000000000000000000000000000000000000000000000000000815260040161164d90612afc565b60405180910390fd5b61165f81611b39565b50565b60085481565b60007f01ffc9a7000000000000000000000000000000000000000000000000000000007bffffffffffffffffffffffffffffffffffffffffffffffffffffffff1916827bffffffffffffffffffffffffffffffffffffffffffffffffffffffff1916149050919050565b600033905090565b60008073ffffffffffffffffffffffffffffffffffffffff166002600084815260200190815260200160002060009054906101000a900473ffffffffffffffffffffffffffffffffffffffff1673ffffffffffffffffffffffffffffffffffffffff1614159050919050565b816004600083815260200190815260200160002060006101000a81548173ffffffffffffffffffffffffffffffffffffffff021916908373ffffffffffffffffffffffffffffffffffffffff160217905550808273ffffffffffffffffffffffffffffffffffffffff166117b983610c17565b73ffffffffffffffffffffffffffffffffffffffff167f8c5be1e5ebec7d5bd14f71427d1e84f3dd0314c0f7b2291e5b200ac8c7c3b92560405160405180910390a45050565b600061180a826116da565b611849576040517f08c379a000000000000000000000000000000000000000000000000000000000815260040161184090612bbc565b60405180910390fd5b600061185483610c17565b90508073ffffffffffffffffffffffffffffffffffffffff168473ffffffffffffffffffffffffffffffffffffffff1614806118c357508373ffffffffffffffffffffffffffffffffffffffff166118ab84610869565b73ffffffffffffffffffffffffffffffffffffffff16145b806118d457506118d381856114d6565b5b91505092915050565b8273ffffffffffffffffffffffffffffffffffffffff166118fd82610c17565b73ffffffffffffffffffffffffffffffffffffffff1614611953576040517f08c379a000000000000000000000000000000000000000000000000000000000815260040161194a90612cbc565b60405180910390fd5b600073ffffffffffffffffffffffffffffffffffffffff168273ffffffffffffffffffffffffffffffffffffffff1614156119c3576040517f08c379a00000000000000000000000000000000000000000000000000000000081526004016119ba90612b5c565b60405180910390fd5b6119ce838383611dca565b6119d9600082611746565b6001600360008573ffffffffffffffffffffffffffffffffffffffff1673ffffffffffffffffffffffffffffffffffffffff1681526020019081526020016000206000828254611a299190612f37565b925050819055506001600360008473ffffffffffffffffffffffffffffffffffffffff1673ffffffffffffffffffffffffffffffffffffffff1681526020019081526020016000206000828254611a809190612e56565b92505081905550816002600083815260200190815260200160002060006101000a81548173ffffffffffffffffffffffffffffffffffffffff021916908373ffffffffffffffffffffffffffffffffffffffff160217905550808273ffffffffffffffffffffffffffffffffffffffff168473ffffffffffffffffffffffffffffffffffffffff167fddf252ad1be2c89b69c2b068fc378daa952ba7f163c4a11628f55a4df523b3ef60405160405180910390a4505050565b6000600660009054906101000a900473ffffffffffffffffffffffffffffffffffffffff16905081600660006101000a81548173ffffffffffffffffffffffffffffffffffffffff021916908373ffffffffffffffffffffffffffffffffffffffff1602179055508173ffffffffffffffffffffffffffffffffffffffff168173ffffffffffffffffffffffffffffffffffffffff167f8be0079c531659141344cd1fd0a4f28419497f9722a3daafe3b4186f6b6457e060405160405180910390a35050565b611c098282611dcf565b5050565b611c188484846118dd565b611c2484848484611f9d565b611c63576040517f08c379a0000000000000000000000000000000000000000000000000000000008152600401611c5a90612adc565b60405180910390fd5b50505050565b60606000821415611cb1576040518060400160405280600181526020017f30000000000000000000000000000000000000000000000000000000000000008152509050611dc5565b600082905060005b60008214611ce3578080611ccc90613084565b915050600a82611cdc9190612eac565b9150611cb9565b60008167ffffffffffffffff811115611cff57611cfe6131ba565b5b6040519080825280601f01601f191660200182016040528015611d315781602001600182028036833780820191505090505b5090505b60008514611dbe57600182611d4a9190612f37565b9150600a85611d5991906130cd565b6030611d659190612e56565b60f81b818381518110611d7b57611d7a61318b565b5b60200101907effffffffffffffffffffffffffffffffffffffffffffffffffffffffffffff1916908160001a905350600a85611db79190612eac565b9450611d35565b8093505050505b919050565b505050565b600073ffffffffffffffffffffffffffffffffffffffff168273ffffffffffffffffffffffffffffffffffffffff161415611e3f576040517f08c379a0000000000000000000000000000000000000000000000000000000008152600401611e3690612c5c565b60405180910390fd5b611e48816116da565b15611e88576040517f08c379a0000000000000000000000000000000000000000000000000000000008152600401611e7f90612b3c565b60405180910390fd5b611e9460008383611dca565b6001600360008473ffffffffffffffffffffffffffffffffffffffff1673ffffffffffffffffffffffffffffffffffffffff1681526020019081526020016000206000828254611ee49190612e56565b92505081905550816002600083815260200190815260200160002060006101000a81548173ffffffffffffffffffffffffffffffffffffffff021916908373ffffffffffffffffffffffffffffffffffffffff160217905550808273ffffffffffffffffffffffffffffffffffffffff16600073ffffffffffffffffffffffffffffffffffffffff167fddf252ad1be2c89b69c2b068fc378daa952ba7f163c4a11628f55a4df523b3ef60405160405180910390a45050565b6000611fbe8473ffffffffffffffffffffffffffffffffffffffff16612134565b15612127578373ffffffffffffffffffffffffffffffffffffffff1663150b7a02611fe76116d2565b8786866040518563ffffffff1660e01b81526004016120099493929190612a33565b602060405180830381600087803b15801561202357600080fd5b505af192505050801561205457506040513d601f19601f820116820180604052508101906120519190612523565b60015b6120d7573d8060008114612084576040519150601f19603f3d011682016040523d82523d6000602084013e612089565b606091505b506000815114156120cf576040517f08c379a00000000000000000000000000000000000000000000000000000000081526004016120c690612adc565b60405180910390fd5b805181602001fd5b63150b7a0260e01b7bffffffffffffffffffffffffffffffffffffffffffffffffffffffff1916817bffffffffffffffffffffffffffffffffffffffffffffffffffffffff19161491505061212c565b600190505b949350505050565b600080823b905060008111915050919050565b82805461215390613021565b90600052602060002090601f01602090048101928261217557600085556121bc565b82601f1061218e57805160ff19168380011785556121bc565b828001600101855582156121bc579182015b828111156121bb5782518255916020019190600101906121a0565b5b5090506121c991906121cd565b5090565b5b808211156121e65760008160009055506001016121ce565b5090565b60006121fd6121f884612d9c565b612d77565b905082815260208101848484011115612219576122186131ee565b5b612224848285612fdf565b509392505050565b600061223f61223a84612dcd565b612d77565b90508281526020810184848401111561225b5761225a6131ee565b5b612266848285612fdf565b509392505050565b60008135905061227d816137a5565b92915050565b600081359050612292816137bc565b92915050565b6000813590506122a7816137d3565b92915050565b6000815190506122bc816137d3565b92915050565b600082601f8301126122d7576122d66131e9565b5b81356122e78482602086016121ea565b91505092915050565b600082601f830112612305576123046131e9565b5b813561231584826020860161222c565b91505092915050565b60008135905061232d816137ea565b92915050565b600060208284031215612349576123486131f8565b5b60006123578482850161226e565b91505092915050565b60008060408385031215612377576123766131f8565b5b60006123858582860161226e565b92505060206123968582860161226e565b9150509250929050565b6000806000606084860312156123b9576123b86131f8565b5b60006123c78682870161226e565b93505060206123d88682870161226e565b92505060406123e98682870161231e565b9150509250925092565b6000806000806080858703121561240d5761240c6131f8565b5b600061241b8782880161226e565b945050602061242c8782880161226e565b935050604061243d8782880161231e565b925050606085013567ffffffffffffffff81111561245e5761245d6131f3565b5b61246a878288016122c2565b91505092959194509250565b6000806040838503121561248d5761248c6131f8565b5b600061249b8582860161226e565b92505060206124ac85828601612283565b9150509250929050565b600080604083850312156124cd576124cc6131f8565b5b60006124db8582860161226e565b92505060206124ec8582860161231e565b9150509250929050565b60006020828403121561250c5761250b6131f8565b5b600061251a84828501612298565b91505092915050565b600060208284031215612539576125386131f8565b5b6000612547848285016122ad565b91505092915050565b600060208284031215612566576125656131f8565b5b600082013567ffffffffffffffff811115612584576125836131f3565b5b612590848285016122f0565b91505092915050565b6000602082840312156125af576125ae6131f8565b5b60006125bd8482850161231e565b91505092915050565b6125cf81612f6b565b82525050565b6125de81612f7d565b82525050565b60006125ef82612e13565b6125f98185612e29565b9350612609818560208601612fee565b612612816131fd565b840191505092915050565b600061262882612e1e565b6126328185612e3a565b9350612642818560208601612fee565b61264b816131fd565b840191505092915050565b600061266182612e1e565b61266b8185612e4b565b935061267b818560208601612fee565b80840191505092915050565b6000815461269481613021565b61269e8186612e4b565b945060018216600081146126b957600181146126ca576126fd565b60ff198316865281860193506126fd565b6126d385612dfe565b60005b838110156126f5578154818901526001820191506020810190506126d6565b838801955050505b50505092915050565b6000612713604183612e3a565b915061271e8261320e565b606082019050919050565b6000612736603283612e3a565b915061274182613283565b604082019050919050565b6000612759602683612e3a565b9150612764826132d2565b604082019050919050565b600061277c601483612e3a565b915061278782613321565b602082019050919050565b600061279f601c83612e3a565b91506127aa8261334a565b602082019050919050565b60006127c2602483612e3a565b91506127cd82613373565b604082019050919050565b60006127e5601983612e3a565b91506127f0826133c2565b602082019050919050565b6000612808601783612e3a565b9150612813826133eb565b602082019050919050565b600061282b602c83612e3a565b915061283682613414565b604082019050919050565b600061284e602b83612e3a565b915061285982613463565b604082019050919050565b6000612871603883612e3a565b915061287c826134b2565b604082019050919050565b6000612894602a83612e3a565b915061289f82613501565b604082019050919050565b60006128b7602983612e3a565b91506128c282613550565b604082019050919050565b60006128da602083612e3a565b91506128e58261359f565b602082019050919050565b60006128fd602c83612e3a565b9150612908826135c8565b604082019050919050565b6000612920602083612e3a565b915061292b82613617565b602082019050919050565b6000612943602983612e3a565b915061294e82613640565b604082019050919050565b6000612966602f83612e3a565b91506129718261368f565b604082019050919050565b6000612989602183612e3a565b9150612994826136de565b604082019050919050565b60006129ac601683612e3a565b91506129b78261372d565b602082019050919050565b60006129cf603183612e3a565b91506129da82613756565b604082019050919050565b6129ee81612fd5565b82525050565b6000612a008285612687565b9150612a0c8284612656565b91508190509392505050565b6000602082019050612a2d60008301846125c6565b92915050565b6000608082019050612a4860008301876125c6565b612a5560208301866125c6565b612a6260408301856129e5565b8181036060830152612a7481846125e4565b905095945050505050565b6000602082019050612a9460008301846125d5565b92915050565b60006020820190508181036000830152612ab4818461261d565b905092915050565b60006020820190508181036000830152612ad581612706565b9050919050565b60006020820190508181036000830152612af581612729565b9050919050565b60006020820190508181036000830152612b158161274c565b9050919050565b60006020820190508181036000830152612b358161276f565b9050919050565b60006020820190508181036000830152612b5581612792565b9050919050565b60006020820190508181036000830152612b75816127b5565b9050919050565b60006020820190508181036000830152612b95816127d8565b9050919050565b60006020820190508181036000830152612bb5816127fb565b9050919050565b60006020820190508181036000830152612bd58161281e565b9050919050565b60006020820190508181036000830152612bf581612841565b9050919050565b60006020820190508181036000830152612c1581612864565b9050919050565b60006020820190508181036000830152612c3581612887565b9050919050565b60006020820190508181036000830152612c55816128aa565b9050919050565b60006020820190508181036000830152612c75816128cd565b9050919050565b60006020820190508181036000830152612c95816128f0565b9050919050565b60006020820190508181036000830152612cb581612913565b9050919050565b60006020820190508181036000830152612cd581612936565b9050919050565b60006020820190508181036000830152612cf581612959565b9050919050565b60006020820190508181036000830152612d158161297c565b9050919050565b60006020820190508181036000830152612d358161299f565b9050919050565b60006020820190508181036000830152612d55816129c2565b9050919050565b6000602082019050612d7160008301846129e5565b92915050565b6000612d81612d92565b9050612d8d8282613053565b919050565b6000604051905090565b600067ffffffffffffffff821115612db757612db66131ba565b5b612dc0826131fd565b9050602081019050919050565b600067ffffffffffffffff821115612de857612de76131ba565b5b612df1826131fd565b9050602081019050919050565b60008190508160005260206000209050919050565b600081519050919050565b600081519050919050565b600082825260208201905092915050565b600082825260208201905092915050565b600081905092915050565b6000612e6182612fd5565b9150612e6c83612fd5565b9250827fffffffffffffffffffffffffffffffffffffffffffffffffffffffffffffffff03821115612ea157612ea06130fe565b5b828201905092915050565b6000612eb782612fd5565b9150612ec283612fd5565b925082612ed257612ed161312d565b5b828204905092915050565b6000612ee882612fd5565b9150612ef383612fd5565b9250817fffffffffffffffffffffffffffffffffffffffffffffffffffffffffffffffff0483118215151615612f2c57612f2b6130fe565b5b828202905092915050565b6000612f4282612fd5565b9150612f4d83612fd5565b925082821015612f6057612f5f6130fe565b5b828203905092915050565b6000612f7682612fb5565b9050919050565b60008115159050919050565b60007fffffffff0000000000000000000000000000000000000000000000000000000082169050919050565b600073ffffffffffffffffffffffffffffffffffffffff82169050919050565b6000819050919050565b82818337600083830152505050565b60005b8381101561300c578082015181840152602081019050612ff1565b8381111561301b576000848401525b50505050565b6000600282049050600182168061303957607f821691505b6020821081141561304d5761304c61315c565b5b50919050565b61305c826131fd565b810181811067ffffffffffffffff8211171561307b5761307a6131ba565b5b80604052505050565b600061308f82612fd5565b91507fffffffffffffffffffffffffffffffffffffffffffffffffffffffffffffffff8214156130c2576130c16130fe565b5b600182019050919050565b60006130d882612fd5565b91506130e383612fd5565b9250826130f3576130f261312d565b5b828206905092915050565b7f4e487b7100000000000000000000000000000000000000000000000000000000600052601160045260246000fd5b7f4e487b7100000000000000000000000000000000000000000000000000000000600052601260045260246000fd5b7f4e487b7100000000000000000000000000000000000000000000000000000000600052602260045260246000fd5b7f4e487b7100000000000000000000000000000000000000000000000000000000600052603260045260246000fd5b7f4e487b7100000000000000000000000000000000000000000000000000000000600052604160045260246000fd5b600080fd5b600080fd5b600080fd5b600080fd5b6000601f19601f8301169050919050565b7f4e6f7420456e6f75676820457468657220746f20627579204e465473206f722060008201527f54686520627579696e67204e46547320617265206d6f7265207468656e20313060208201527f3000000000000000000000000000000000000000000000000000000000000000604082015250565b7f4552433732313a207472616e7366657220746f206e6f6e20455243373231526560008201527f63656976657220696d706c656d656e7465720000000000000000000000000000602082015250565b7f4f776e61626c653a206e6577206f776e657220697320746865207a65726f206160008201527f6464726573730000000000000000000000000000000000000000000000000000602082015250565b7f53616c6520697320616c7265616479204f66662e000000000000000000000000600082015250565b7f4552433732313a20746f6b656e20616c7265616479206d696e74656400000000600082015250565b7f4552433732313a207472616e7366657220746f20746865207a65726f2061646460008201527f7265737300000000000000000000000000000000000000000000000000000000602082015250565b7f4552433732313a20617070726f766520746f2063616c6c657200000000000000600082015250565b7f43616e2774206d696e7420746f20302061646472657373000000000000000000600082015250565b7f4552433732313a206f70657261746f7220717565727920666f72206e6f6e657860008201527f697374656e7420746f6b656e0000000000000000000000000000000000000000602082015250565b7f5468652073616c652068617320746f206265206c657373206f7220657175616c60008201527f20746f2033302064617973000000000000000000000000000000000000000000602082015250565b7f4552433732313a20617070726f76652063616c6c6572206973206e6f74206f7760008201527f6e6572206e6f7220617070726f76656420666f7220616c6c0000000000000000602082015250565b7f4552433732313a2062616c616e636520717565727920666f7220746865207a6560008201527f726f206164647265737300000000000000000000000000000000000000000000602082015250565b7f4552433732313a206f776e657220717565727920666f72206e6f6e657869737460008201527f656e7420746f6b656e0000000000000000000000000000000000000000000000602082015250565b7f4552433732313a206d696e7420746f20746865207a65726f2061646472657373600082015250565b7f4552433732313a20617070726f76656420717565727920666f72206e6f6e657860008201527f697374656e7420746f6b656e0000000000000000000000000000000000000000602082015250565b7f4f776e61626c653a2063616c6c6572206973206e6f7420746865206f776e6572600082015250565b7f4552433732313a207472616e73666572206f6620746f6b656e2074686174206960008201527f73206e6f74206f776e0000000000000000000000000000000000000000000000602082015250565b7f4552433732314d657461646174613a2055524920717565727920666f72206e6f60008201527f6e6578697374656e7420746f6b656e0000000000000000000000000000000000602082015250565b7f4552433732313a20617070726f76616c20746f2063757272656e74206f776e6560008201527f7200000000000000000000000000000000000000000000000000000000000000602082015250565b7f53616c652069732063757272656e746c79204f66662e00000000000000000000600082015250565b7f4552433732313a207472616e736665722063616c6c6572206973206e6f74206f60008201527f776e6572206e6f7220617070726f766564000000000000000000000000000000602082015250565b6137ae81612f6b565b81146137b957600080fd5b50565b6137c581612f7d565b81146137d057600080fd5b50565b6137dc81612f89565b81146137e757600080fd5b50565b6137f381612fd5565b81146137fe57600080fd5b5056fea264697066735822122081ae34c58407f43f80eaad38e9a99b01738b25abef104a1790b76c1b4f9d7c1764736f6c63430008070033",
  "immutableReferences": {},
  "source": "//SPDX-License-Identifier: Unlicense\n\npragma solidity ^0.8.7;\n/*\n\nCreate an ERC721 Token with the following requirements\n\nuser can only buy tokens when the sale is started\nthe sale should be ended within 30 days\nthe owner can set base URI\nthe owner can set the price of NFT\nNFT minting hard limit is 100\n\n*/\nimport \"@openzeppelin/contracts/token/ERC721/IERC721.sol\";\nimport \"@openzeppelin/contracts/token/ERC721/ERC721.sol\";\nimport \"@openzeppelin/contracts/token/ERC721/IERC721Receiver.sol\";\nimport \"@openzeppelin/contracts/token/ERC721/extensions/IERC721Metadata.sol\";\nimport \"@openzeppelin/contracts/utils/Address.sol\";\nimport \"@openzeppelin/contracts/utils/Context.sol\";\nimport \"@openzeppelin/contracts/utils/Strings.sol\";\nimport \"@openzeppelin/contracts/utils/introspection/ERC165.sol\";\nimport \"@openzeppelin/contracts/access/Ownable.sol\";\n\n\n\ncontract AXY721 is ERC721, Ownable{\n    \n    string public baseURI = \"https://floydnft.com/token/\";\n    uint public salePrice;\n    uint public hardLimit = 100;\n    uint public currentPublicTokenID = 0;\n    \n    string _tokenName = \"AXY Token\";\n    string _tokenSymbol = \"AXY\";\n    uint public saleTill;\n    \n    using Strings for uint256;\n    \n    // mapping for storing token against uri\n    mapping(uint=>string) public _tokenURImap;\n    \n    // constructor(string memory _tokenName, string memory _tokenSymbol,uint _salePrice) ERC721(_tokenName, _tokenSymbol){\n    //     saleStart = false;\n    //     salePrice = _salePrice;\n    // }\n    constructor() ERC721(_tokenName, _tokenSymbol){\n        salePrice = 10;\n        saleTill = 0 days;\n    }\n    \nmodifier _isSaleON() {\n    require(block.timestamp < saleTill,\"Sale is currently Off.\");\n    _;\n}\n    // ___________________ Starting the sale ________________________\n  function startSale(uint _forDays) public onlyOwner{\n      uint _Days = _forDays * 1 days;\n      require(_Days <= 30 days,\"The sale has to be less or equal to 30 days\");\n      saleTill = block.timestamp + _Days;\n  }  \n  // ___________________ Stoping the sale ________________________\n  function stopSale() public onlyOwner{\n      require(block.timestamp < saleTill,\"Sale is already Off.\");\n      saleTill = 0 days;\n  }  \n  \n  //_____________________ Buying NFT ________________________\n  function mintNdIncrementSupply(address to, uint tokenID) internal{\n         _mint(to,tokenID);\n    }\n    \n    \n  function mintAXY(address _to,uint _quantity) payable external _isSaleON {\n        require(_to != address(0), \"Can't mint to 0 address\");\n        require(msg.value >= salePrice * _quantity && currentPublicTokenID + _quantity <= 100, \"Not Enough Ether to buy NFTs or The buying NFTs are more then 100\");\n        \n        for(uint i = 1; i<= _quantity; i++){\n            currentPublicTokenID++;\n            mintNdIncrementSupply(_to, currentPublicTokenID);\n            // ________ Binding an url to a token ____________\n            _tokenURImap[currentPublicTokenID] = tokenURI(currentPublicTokenID);\n        }\n  }\n  \n  function tokenURI(uint256 tokenId) public view override returns (string memory) {\n        require(_exists(tokenId), \"ERC721Metadata: URI query for nonexistent token\");\n        return bytes(baseURI).length > 0 ? string(abi.encodePacked(baseURI,tokenId.toString())) : \"\";\n    }\n  \n  // ______________________ Setting URL _______________________\n  function setURI(string memory _uri) public onlyOwner{\n      baseURI = _uri;\n    }\n    \n    // ______________________ Setting Price _______________________\n  function setPrice(uint _price) public onlyOwner{\n      salePrice = _price;\n    }\n}",
  "sourcePath": "D:\\25 - Testing Q3\\Assignments\\Truffle - ERC721 AXY NFT\\contracts\\AXY721.sol",
  "compiler": {
    "name": "solc",
    "version": "0.8.7+commit.e28d00a7.Emscripten.clang"
  },
  "schemaVersion": "3.4.3",
  "updatedAt": "2021-09-12T09:53:19.730Z",
  "devdoc": {
    "kind": "dev",
    "methods": {
      "approve(address,uint256)": {
        "details": "See {IERC721-approve}."
      },
      "balanceOf(address)": {
        "details": "See {IERC721-balanceOf}."
      },
      "getApproved(uint256)": {
        "details": "See {IERC721-getApproved}."
      },
      "isApprovedForAll(address,address)": {
        "details": "See {IERC721-isApprovedForAll}."
      },
      "name()": {
        "details": "See {IERC721Metadata-name}."
      },
      "owner()": {
        "details": "Returns the address of the current owner."
      },
      "ownerOf(uint256)": {
        "details": "See {IERC721-ownerOf}."
      },
      "renounceOwnership()": {
        "details": "Leaves the contract without owner. It will not be possible to call `onlyOwner` functions anymore. Can only be called by the current owner. NOTE: Renouncing ownership will leave the contract without an owner, thereby removing any functionality that is only available to the owner."
      },
      "safeTransferFrom(address,address,uint256)": {
        "details": "See {IERC721-safeTransferFrom}."
      },
      "safeTransferFrom(address,address,uint256,bytes)": {
        "details": "See {IERC721-safeTransferFrom}."
      },
      "setApprovalForAll(address,bool)": {
        "details": "See {IERC721-setApprovalForAll}."
      },
      "supportsInterface(bytes4)": {
        "details": "See {IERC165-supportsInterface}."
      },
      "symbol()": {
        "details": "See {IERC721Metadata-symbol}."
      },
      "tokenURI(uint256)": {
        "details": "See {IERC721Metadata-tokenURI}."
      },
      "transferFrom(address,address,uint256)": {
        "details": "See {IERC721-transferFrom}."
      },
      "transferOwnership(address)": {
        "details": "Transfers ownership of the contract to a new account (`newOwner`). Can only be called by the current owner."
      }
    },
    "version": 1
  },
  "userdoc": {
    "kind": "user",
    "methods": {},
    "version": 1
  }
}