{
  "contractName": "AXY721",
  "abi": [
    {
      "inputs": [],
      "stateMutability": "nonpayable",
      "type": "constructor"
    },
    {
      "anonymous": false,
      "inputs": [
        {
          "indexed": true,
          "internalType": "address",
          "name": "owner",
          "type": "address"
        },
        {
          "indexed": true,
          "internalType": "address",
          "name": "approved",
          "type": "address"
        },
        {
          "indexed": true,
          "internalType": "uint256",
          "name": "tokenId",
          "type": "uint256"
        }
      ],
      "name": "Approval",
      "type": "event"
    },
    {
      "anonymous": false,
      "inputs": [
        {
          "indexed": true,
          "internalType": "address",
          "name": "owner",
          "type": "address"
        },
        {
          "indexed": true,
          "internalType": "address",
          "name": "operator",
          "type": "address"
        },
        {
          "indexed": false,
          "internalType": "bool",
          "name": "approved",
          "type": "bool"
        }
      ],
      "name": "ApprovalForAll",
      "type": "event"
    },
    {
      "anonymous": false,
      "inputs": [
        {
          "indexed": true,
          "internalType": "address",
          "name": "previousOwner",
          "type": "address"
        },
        {
          "indexed": true,
          "internalType": "address",
          "name": "newOwner",
          "type": "address"
        }
      ],
      "name": "OwnershipTransferred",
      "type": "event"
    },
    {
      "anonymous": false,
      "inputs": [
        {
          "indexed": true,
          "internalType": "address",
          "name": "from",
          "type": "address"
        },
        {
          "indexed": true,
          "internalType": "address",
          "name": "to",
          "type": "address"
        },
        {
          "indexed": true,
          "internalType": "uint256",
          "name": "tokenId",
          "type": "uint256"
        }
      ],
      "name": "Transfer",
      "type": "event"
    },
    {
      "inputs": [
        {
          "internalType": "address",
          "name": "to",
          "type": "address"
        },
        {
          "internalType": "uint256",
          "name": "tokenId",
          "type": "uint256"
        }
      ],
      "name": "approve",
      "outputs": [],
      "stateMutability": "nonpayable",
      "type": "function"
    },
    {
      "inputs": [
        {
          "internalType": "address",
          "name": "owner",
          "type": "address"
        }
      ],
      "name": "balanceOf",
      "outputs": [
        {
          "internalType": "uint256",
          "name": "",
          "type": "uint256"
        }
      ],
      "stateMutability": "view",
      "type": "function",
      "constant": true
    },
    {
      "inputs": [],
      "name": "baseURI",
      "outputs": [
        {
          "internalType": "string",
          "name": "",
          "type": "string"
        }
      ],
      "stateMutability": "view",
      "type": "function",
      "constant": true
    },
    {
      "inputs": [],
      "name": "currentPublicTokenID",
      "outputs": [
        {
          "internalType": "uint256",
          "name": "",
          "type": "uint256"
        }
      ],
      "stateMutability": "view",
      "type": "function",
      "constant": true
    },
    {
      "inputs": [
        {
          "internalType": "uint256",
          "name": "tokenId",
          "type": "uint256"
        }
      ],
      "name": "getApproved",
      "outputs": [
        {
          "internalType": "address",
          "name": "",
          "type": "address"
        }
      ],
      "stateMutability": "view",
      "type": "function",
      "constant": true
    },
    {
      "inputs": [],
      "name": "hardLimit",
      "outputs": [
        {
          "internalType": "uint256",
          "name": "",
          "type": "uint256"
        }
      ],
      "stateMutability": "view",
      "type": "function",
      "constant": true
    },
    {
      "inputs": [
        {
          "internalType": "address",
          "name": "owner",
          "type": "address"
        },
        {
          "internalType": "address",
          "name": "operator",
          "type": "address"
        }
      ],
      "name": "isApprovedForAll",
      "outputs": [
        {
          "internalType": "bool",
          "name": "",
          "type": "bool"
        }
      ],
      "stateMutability": "view",
      "type": "function",
      "constant": true
    },
    {
      "inputs": [],
      "name": "name",
      "outputs": [
        {
          "internalType": "string",
          "name": "",
          "type": "string"
        }
      ],
      "stateMutability": "view",
      "type": "function",
      "constant": true
    },
    {
      "inputs": [],
      "name": "owner",
      "outputs": [
        {
          "internalType": "address",
          "name": "",
          "type": "address"
        }
      ],
      "stateMutability": "view",
      "type": "function",
      "constant": true
    },
    {
      "inputs": [
        {
          "internalType": "uint256",
          "name": "tokenId",
          "type": "uint256"
        }
      ],
      "name": "ownerOf",
      "outputs": [
        {
          "internalType": "address",
          "name": "",
          "type": "address"
        }
      ],
      "stateMutability": "view",
      "type": "function",
      "constant": true
    },
    {
      "inputs": [],
      "name": "renounceOwnership",
      "outputs": [],
      "stateMutability": "nonpayable",
      "type": "function"
    },
    {
      "inputs": [
        {
          "internalType": "address",
          "name": "from",
          "type": "address"
        },
        {
          "internalType": "address",
          "name": "to",
          "type": "address"
        },
        {
          "internalType": "uint256",
          "name": "tokenId",
          "type": "uint256"
        }
      ],
      "name": "safeTransferFrom",
      "outputs": [],
      "stateMutability": "nonpayable",
      "type": "function"
    },
    {
      "inputs": [
        {
          "internalType": "address",
          "name": "from",
          "type": "address"
        },
        {
          "internalType": "address",
          "name": "to",
          "type": "address"
        },
        {
          "internalType": "uint256",
          "name": "tokenId",
          "type": "uint256"
        },
        {
          "internalType": "bytes",
          "name": "_data",
          "type": "bytes"
        }
      ],
      "name": "safeTransferFrom",
      "outputs": [],
      "stateMutability": "nonpayable",
      "type": "function"
    },
    {
      "inputs": [],
      "name": "salePrice",
      "outputs": [
        {
          "internalType": "uint256",
          "name": "",
          "type": "uint256"
        }
      ],
      "stateMutability": "view",
      "type": "function",
      "constant": true
    },
    {
      "inputs": [],
      "name": "saleStart",
      "outputs": [
        {
          "internalType": "bool",
          "name": "",
          "type": "bool"
        }
      ],
      "stateMutability": "view",
      "type": "function",
      "constant": true
    },
    {
      "inputs": [
        {
          "internalType": "address",
          "name": "operator",
          "type": "address"
        },
        {
          "internalType": "bool",
          "name": "approved",
          "type": "bool"
        }
      ],
      "name": "setApprovalForAll",
      "outputs": [],
      "stateMutability": "nonpayable",
      "type": "function"
    },
    {
      "inputs": [
        {
          "internalType": "bytes4",
          "name": "interfaceId",
          "type": "bytes4"
        }
      ],
      "name": "supportsInterface",
      "outputs": [
        {
          "internalType": "bool",
          "name": "",
          "type": "bool"
        }
      ],
      "stateMutability": "view",
      "type": "function",
      "constant": true
    },
    {
      "inputs": [],
      "name": "symbol",
      "outputs": [
        {
          "internalType": "string",
          "name": "",
          "type": "string"
        }
      ],
      "stateMutability": "view",
      "type": "function",
      "constant": true
    },
    {
      "inputs": [
        {
          "internalType": "uint256",
          "name": "tokenId",
          "type": "uint256"
        }
      ],
      "name": "tokenURI",
      "outputs": [
        {
          "internalType": "string",
          "name": "",
          "type": "string"
        }
      ],
      "stateMutability": "view",
      "type": "function",
      "constant": true
    },
    {
      "inputs": [
        {
          "internalType": "address",
          "name": "from",
          "type": "address"
        },
        {
          "internalType": "address",
          "name": "to",
          "type": "address"
        },
        {
          "internalType": "uint256",
          "name": "tokenId",
          "type": "uint256"
        }
      ],
      "name": "transferFrom",
      "outputs": [],
      "stateMutability": "nonpayable",
      "type": "function"
    },
    {
      "inputs": [
        {
          "internalType": "address",
          "name": "newOwner",
          "type": "address"
        }
      ],
      "name": "transferOwnership",
      "outputs": [],
      "stateMutability": "nonpayable",
      "type": "function"
    },
    {
      "inputs": [
        {
          "internalType": "uint256",
          "name": "_saleDays",
          "type": "uint256"
        }
      ],
      "name": "startSale",
      "outputs": [],
      "stateMutability": "nonpayable",
      "type": "function"
    },
    {
      "inputs": [],
      "name": "stopSale",
      "outputs": [],
      "stateMutability": "nonpayable",
      "type": "function"
    },
    {
      "inputs": [
        {
          "internalType": "uint256",
          "name": "_quantity",
          "type": "uint256"
        }
      ],
      "name": "buyAXYToken",
      "outputs": [],
      "stateMutability": "payable",
      "type": "function",
      "payable": true
    },
    {
      "inputs": [
        {
          "internalType": "string",
          "name": "url",
          "type": "string"
        }
      ],
      "name": "setURL",
      "outputs": [],
      "stateMutability": "nonpayable",
      "type": "function"
    },
    {
      "inputs": [
        {
          "internalType": "uint256",
          "name": "_price",
          "type": "uint256"
        }
      ],
      "name": "setPrice",
      "outputs": [],
      "stateMutability": "nonpayable",
      "type": "function"
    }
  ],
  "bytecode": "0x60806040526040518060400160405280602081526020017f68747470733a2f2f666c6f79646e66742e636f6d2f746f6b656e2f2671756f74815250600790805190602001906200005192919062000377565b5060646009556000600a556040518060400160405280600981526020017f41585920546f6b656e0000000000000000000000000000000000000000000000815250600c9080519060200190620000a992919062000377565b506040518060400160405280600381526020017f4158590000000000000000000000000000000000000000000000000000000000815250600d9080519060200190620000f792919062000377565b503480156200010557600080fd5b50600c8054620001159062000427565b80601f0160208091040260200160405190810160405280929190818152602001828054620001439062000427565b8015620001945780601f10620001685761010080835404028352916020019162000194565b820191906000526020600020905b8154815290600101906020018083116200017657829003601f168201915b5050505050600d8054620001a89062000427565b80601f0160208091040260200160405190810160405280929190818152602001828054620001d69062000427565b8015620002275780601f10620001fb5761010080835404028352916020019162000227565b820191906000526020600020905b8154815290600101906020018083116200020957829003601f168201915b505050505081600090805190602001906200024492919062000377565b5080600190805190602001906200025d92919062000377565b5050506200028062000274620002a960201b60201c565b620002b160201b60201c565b600a6008819055506000600b60006101000a81548160ff0219169083151502179055506200048c565b600033905090565b6000600660009054906101000a900473ffffffffffffffffffffffffffffffffffffffff16905081600660006101000a81548173ffffffffffffffffffffffffffffffffffffffff021916908373ffffffffffffffffffffffffffffffffffffffff1602179055508173ffffffffffffffffffffffffffffffffffffffff168173ffffffffffffffffffffffffffffffffffffffff167f8be0079c531659141344cd1fd0a4f28419497f9722a3daafe3b4186f6b6457e060405160405180910390a35050565b828054620003859062000427565b90600052602060002090601f016020900481019282620003a95760008555620003f5565b82601f10620003c457805160ff1916838001178555620003f5565b82800160010185558215620003f5579182015b82811115620003f4578251825591602001919060010190620003d7565b5b50905062000404919062000408565b5090565b5b808211156200042357600081600090555060010162000409565b5090565b600060028204905060018216806200044057607f821691505b602082108114156200045757620004566200045d565b5b50919050565b7f4e487b7100000000000000000000000000000000000000000000000000000000600052602260045260246000fd5b61356f806200049c6000396000f3fe6080604052600436106101815760003560e01c8063798c45ea116100d1578063b88d4fde1161008a578063e36b0b3711610064578063e36b0b371461055f578063e985e9c514610576578063f2fde38b146105b3578063f51f96dd146105dc57610181565b8063b88d4fde146104ce578063c41f6d5f146104f7578063c87b56dd1461052257610181565b8063798c45ea146103d05780638da5cb5b146103fb57806391b7f5ed1461042657806395d89b411461044f578063a22cb4651461047a578063ab0bcc41146104a357610181565b80632a4b0f241161013e5780636c0360eb116101185780636c0360eb1461032857806370a0823114610353578063715018a61461039057806377343408146103a757610181565b80632a4b0f24146102a657806342842e0e146102c25780636352211e146102eb57610181565b806301ffc9a71461018657806306fdde03146101c3578063081812fc146101ee578063095ea7b31461022b5780630e3ab61d1461025457806323b872dd1461027d575b600080fd5b34801561019257600080fd5b506101ad60048036038101906101a8919061239a565b610607565b6040516101ba919061285e565b60405180910390f35b3480156101cf57600080fd5b506101d86106e9565b6040516101e59190612879565b60405180910390f35b3480156101fa57600080fd5b506102156004803603810190610210919061243d565b61077b565b60405161022291906127f7565b60405180910390f35b34801561023757600080fd5b50610252600480360381019061024d919061235a565b610800565b005b34801561026057600080fd5b5061027b6004803603810190610276919061243d565b610918565b005b34801561028957600080fd5b506102a4600480360381019061029f9190612244565b6109f8565b005b6102c060048036038101906102bb919061243d565b610a58565b005b3480156102ce57600080fd5b506102e960048036038101906102e49190612244565b610b5a565b005b3480156102f757600080fd5b50610312600480360381019061030d919061243d565b610b7a565b60405161031f91906127f7565b60405180910390f35b34801561033457600080fd5b5061033d610c2c565b60405161034a9190612879565b60405180910390f35b34801561035f57600080fd5b5061037a600480360381019061037591906121d7565b610cba565b6040516103879190612afb565b60405180910390f35b34801561039c57600080fd5b506103a5610d72565b005b3480156103b357600080fd5b506103ce60048036038101906103c991906123f4565b610dfa565b005b3480156103dc57600080fd5b506103e5610e90565b6040516103f29190612afb565b60405180910390f35b34801561040757600080fd5b50610410610e96565b60405161041d91906127f7565b60405180910390f35b34801561043257600080fd5b5061044d6004803603810190610448919061243d565b610ec0565b005b34801561045b57600080fd5b50610464610f46565b6040516104719190612879565b60405180910390f35b34801561048657600080fd5b506104a1600480360381019061049c919061231a565b610fd8565b005b3480156104af57600080fd5b506104b8611159565b6040516104c5919061285e565b60405180910390f35b3480156104da57600080fd5b506104f560048036038101906104f09190612297565b61116c565b005b34801561050357600080fd5b5061050c6111ce565b6040516105199190612afb565b60405180910390f35b34801561052e57600080fd5b506105496004803603810190610544919061243d565b6111d4565b6040516105569190612879565b60405180910390f35b34801561056b57600080fd5b5061057461127b565b005b34801561058257600080fd5b5061059d60048036038101906105989190612204565b611363565b6040516105aa919061285e565b60405180910390f35b3480156105bf57600080fd5b506105da60048036038101906105d591906121d7565b6113f7565b005b3480156105e857600080fd5b506105f16114ef565b6040516105fe9190612afb565b60405180910390f35b60007f80ac58cd000000000000000000000000000000000000000000000000000000007bffffffffffffffffffffffffffffffffffffffffffffffffffffffff1916827bffffffffffffffffffffffffffffffffffffffffffffffffffffffff191614806106d257507f5b5e139f000000000000000000000000000000000000000000000000000000007bffffffffffffffffffffffffffffffffffffffffffffffffffffffff1916827bffffffffffffffffffffffffffffffffffffffffffffffffffffffff1916145b806106e257506106e1826114f5565b5b9050919050565b6060600080546106f890612dab565b80601f016020809104026020016040519081016040528092919081815260200182805461072490612dab565b80156107715780601f1061074657610100808354040283529160200191610771565b820191906000526020600020905b81548152906001019060200180831161075457829003601f168201915b5050505050905090565b60006107868261155f565b6107c5576040517f08c379a00000000000000000000000000000000000000000000000000000000081526004016107bc90612a3b565b60405180910390fd5b6004600083815260200190815260200160002060009054906101000a900473ffffffffffffffffffffffffffffffffffffffff169050919050565b600061080b82610b7a565b90508073ffffffffffffffffffffffffffffffffffffffff168373ffffffffffffffffffffffffffffffffffffffff16141561087c576040517f08c379a000000000000000000000000000000000000000000000000000000000815260040161087390612abb565b60405180910390fd5b8073ffffffffffffffffffffffffffffffffffffffff1661089b6115cb565b73ffffffffffffffffffffffffffffffffffffffff1614806108ca57506108c9816108c46115cb565b611363565b5b610909576040517f08c379a0000000000000000000000000000000000000000000000000000000008152600401610900906129bb565b60405180910390fd5b61091383836115d3565b505050565b6109206115cb565b73ffffffffffffffffffffffffffffffffffffffff1661093e610e96565b73ffffffffffffffffffffffffffffffffffffffff1614610994576040517f08c379a000000000000000000000000000000000000000000000000000000000815260040161098b90612a5b565b60405180910390fd5b62278d008111156109da576040517f08c379a00000000000000000000000000000000000000000000000000000000081526004016109d19061299b565b60405180910390fd5b6001600b60006101000a81548160ff02191690831515021790555050565b610a09610a036115cb565b8261168c565b610a48576040517f08c379a0000000000000000000000000000000000000000000000000000000008152600401610a3f90612adb565b60405180910390fd5b610a5383838361176a565b505050565b600b60009054906101000a900460ff16610aa7576040517f08c379a0000000000000000000000000000000000000000000000000000000008152600401610a9e9061295b565b60405180910390fd5b80600854610ab59190612c67565b3410158015610ad25750606481600a54610acf9190612be0565b11155b610b11576040517f08c379a0000000000000000000000000000000000000000000000000000000008152600401610b089061289b565b60405180910390fd5b6000600190505b818111610b5657600a6000815480929190610b3290612e0e565b9190505550610b4333600a546119c6565b8080610b4e90612e0e565b915050610b18565b5050565b610b758383836040518060200160405280600081525061116c565b505050565b6000806002600084815260200190815260200160002060009054906101000a900473ffffffffffffffffffffffffffffffffffffffff169050600073ffffffffffffffffffffffffffffffffffffffff168173ffffffffffffffffffffffffffffffffffffffff161415610c23576040517f08c379a0000000000000000000000000000000000000000000000000000000008152600401610c1a906129fb565b60405180910390fd5b80915050919050565b60078054610c3990612dab565b80601f0160208091040260200160405190810160405280929190818152602001828054610c6590612dab565b8015610cb25780601f10610c8757610100808354040283529160200191610cb2565b820191906000526020600020905b815481529060010190602001808311610c9557829003601f168201915b505050505081565b60008073ffffffffffffffffffffffffffffffffffffffff168273ffffffffffffffffffffffffffffffffffffffff161415610d2b576040517f08c379a0000000000000000000000000000000000000000000000000000000008152600401610d22906129db565b60405180910390fd5b600360008373ffffffffffffffffffffffffffffffffffffffff1673ffffffffffffffffffffffffffffffffffffffff168152602001908152602001600020549050919050565b610d7a6115cb565b73ffffffffffffffffffffffffffffffffffffffff16610d98610e96565b73ffffffffffffffffffffffffffffffffffffffff1614610dee576040517f08c379a0000000000000000000000000000000000000000000000000000000008152600401610de590612a5b565b60405180910390fd5b610df860006119d4565b565b610e026115cb565b73ffffffffffffffffffffffffffffffffffffffff16610e20610e96565b73ffffffffffffffffffffffffffffffffffffffff1614610e76576040517f08c379a0000000000000000000000000000000000000000000000000000000008152600401610e6d90612a5b565b60405180910390fd5b8060079080519060200190610e8c929190611feb565b5050565b600a5481565b6000600660009054906101000a900473ffffffffffffffffffffffffffffffffffffffff16905090565b610ec86115cb565b73ffffffffffffffffffffffffffffffffffffffff16610ee6610e96565b73ffffffffffffffffffffffffffffffffffffffff1614610f3c576040517f08c379a0000000000000000000000000000000000000000000000000000000008152600401610f3390612a5b565b60405180910390fd5b8060088190555050565b606060018054610f5590612dab565b80601f0160208091040260200160405190810160405280929190818152602001828054610f8190612dab565b8015610fce5780601f10610fa357610100808354040283529160200191610fce565b820191906000526020600020905b815481529060010190602001808311610fb157829003601f168201915b5050505050905090565b610fe06115cb565b73ffffffffffffffffffffffffffffffffffffffff168273ffffffffffffffffffffffffffffffffffffffff16141561104e576040517f08c379a00000000000000000000000000000000000000000000000000000000081526004016110459061293b565b60405180910390fd5b806005600061105b6115cb565b73ffffffffffffffffffffffffffffffffffffffff1673ffffffffffffffffffffffffffffffffffffffff16815260200190815260200160002060008473ffffffffffffffffffffffffffffffffffffffff1673ffffffffffffffffffffffffffffffffffffffff16815260200190815260200160002060006101000a81548160ff0219169083151502179055508173ffffffffffffffffffffffffffffffffffffffff166111086115cb565b73ffffffffffffffffffffffffffffffffffffffff167f17307eab39ab6107e8899845ad3d59bd9653f200f220920489ca2b5937696c318360405161114d919061285e565b60405180910390a35050565b600b60009054906101000a900460ff1681565b61117d6111776115cb565b8361168c565b6111bc576040517f08c379a00000000000000000000000000000000000000000000000000000000081526004016111b390612adb565b60405180910390fd5b6111c884848484611a9a565b50505050565b60095481565b60606111df8261155f565b61121e576040517f08c379a000000000000000000000000000000000000000000000000000000000815260040161121590612a9b565b60405180910390fd5b6000611228611af6565b905060008151116112485760405180602001604052806000815250611273565b8061125284611b0d565b6040516020016112639291906127d3565b6040516020818303038152906040525b915050919050565b600b60009054906101000a900460ff166112ca576040517f08c379a00000000000000000000000000000000000000000000000000000000081526004016112c19061295b565b60405180910390fd5b6112d26115cb565b73ffffffffffffffffffffffffffffffffffffffff166112f0610e96565b73ffffffffffffffffffffffffffffffffffffffff1614611346576040517f08c379a000000000000000000000000000000000000000000000000000000000815260040161133d90612a5b565b60405180910390fd5b6000600b60006101000a81548160ff021916908315150217905550565b6000600560008473ffffffffffffffffffffffffffffffffffffffff1673ffffffffffffffffffffffffffffffffffffffff16815260200190815260200160002060008373ffffffffffffffffffffffffffffffffffffffff1673ffffffffffffffffffffffffffffffffffffffff16815260200190815260200160002060009054906101000a900460ff16905092915050565b6113ff6115cb565b73ffffffffffffffffffffffffffffffffffffffff1661141d610e96565b73ffffffffffffffffffffffffffffffffffffffff1614611473576040517f08c379a000000000000000000000000000000000000000000000000000000000815260040161146a90612a5b565b60405180910390fd5b600073ffffffffffffffffffffffffffffffffffffffff168173ffffffffffffffffffffffffffffffffffffffff1614156114e3576040517f08c379a00000000000000000000000000000000000000000000000000000000081526004016114da906128db565b60405180910390fd5b6114ec816119d4565b50565b60085481565b60007f01ffc9a7000000000000000000000000000000000000000000000000000000007bffffffffffffffffffffffffffffffffffffffffffffffffffffffff1916827bffffffffffffffffffffffffffffffffffffffffffffffffffffffff1916149050919050565b60008073ffffffffffffffffffffffffffffffffffffffff166002600084815260200190815260200160002060009054906101000a900473ffffffffffffffffffffffffffffffffffffffff1673ffffffffffffffffffffffffffffffffffffffff1614159050919050565b600033905090565b816004600083815260200190815260200160002060006101000a81548173ffffffffffffffffffffffffffffffffffffffff021916908373ffffffffffffffffffffffffffffffffffffffff160217905550808273ffffffffffffffffffffffffffffffffffffffff1661164683610b7a565b73ffffffffffffffffffffffffffffffffffffffff167f8c5be1e5ebec7d5bd14f71427d1e84f3dd0314c0f7b2291e5b200ac8c7c3b92560405160405180910390a45050565b60006116978261155f565b6116d6576040517f08c379a00000000000000000000000000000000000000000000000000000000081526004016116cd9061297b565b60405180910390fd5b60006116e183610b7a565b90508073ffffffffffffffffffffffffffffffffffffffff168473ffffffffffffffffffffffffffffffffffffffff16148061175057508373ffffffffffffffffffffffffffffffffffffffff166117388461077b565b73ffffffffffffffffffffffffffffffffffffffff16145b8061176157506117608185611363565b5b91505092915050565b8273ffffffffffffffffffffffffffffffffffffffff1661178a82610b7a565b73ffffffffffffffffffffffffffffffffffffffff16146117e0576040517f08c379a00000000000000000000000000000000000000000000000000000000081526004016117d790612a7b565b60405180910390fd5b600073ffffffffffffffffffffffffffffffffffffffff168273ffffffffffffffffffffffffffffffffffffffff161415611850576040517f08c379a00000000000000000000000000000000000000000000000000000000081526004016118479061291b565b60405180910390fd5b61185b838383611c6e565b6118666000826115d3565b6001600360008573ffffffffffffffffffffffffffffffffffffffff1673ffffffffffffffffffffffffffffffffffffffff16815260200190815260200160002060008282546118b69190612cc1565b925050819055506001600360008473ffffffffffffffffffffffffffffffffffffffff1673ffffffffffffffffffffffffffffffffffffffff168152602001908152602001600020600082825461190d9190612be0565b92505081905550816002600083815260200190815260200160002060006101000a81548173ffffffffffffffffffffffffffffffffffffffff021916908373ffffffffffffffffffffffffffffffffffffffff160217905550808273ffffffffffffffffffffffffffffffffffffffff168473ffffffffffffffffffffffffffffffffffffffff167fddf252ad1be2c89b69c2b068fc378daa952ba7f163c4a11628f55a4df523b3ef60405160405180910390a4505050565b6119d08282611c73565b5050565b6000600660009054906101000a900473ffffffffffffffffffffffffffffffffffffffff16905081600660006101000a81548173ffffffffffffffffffffffffffffffffffffffff021916908373ffffffffffffffffffffffffffffffffffffffff1602179055508173ffffffffffffffffffffffffffffffffffffffff168173ffffffffffffffffffffffffffffffffffffffff167f8be0079c531659141344cd1fd0a4f28419497f9722a3daafe3b4186f6b6457e060405160405180910390a35050565b611aa584848461176a565b611ab184848484611e41565b611af0576040517f08c379a0000000000000000000000000000000000000000000000000000000008152600401611ae7906128bb565b60405180910390fd5b50505050565b606060405180602001604052806000815250905090565b60606000821415611b55576040518060400160405280600181526020017f30000000000000000000000000000000000000000000000000000000000000008152509050611c69565b600082905060005b60008214611b87578080611b7090612e0e565b915050600a82611b809190612c36565b9150611b5d565b60008167ffffffffffffffff811115611ba357611ba2612f44565b5b6040519080825280601f01601f191660200182016040528015611bd55781602001600182028036833780820191505090505b5090505b60008514611c6257600182611bee9190612cc1565b9150600a85611bfd9190612e57565b6030611c099190612be0565b60f81b818381518110611c1f57611c1e612f15565b5b60200101907effffffffffffffffffffffffffffffffffffffffffffffffffffffffffffff1916908160001a905350600a85611c5b9190612c36565b9450611bd9565b8093505050505b919050565b505050565b600073ffffffffffffffffffffffffffffffffffffffff168273ffffffffffffffffffffffffffffffffffffffff161415611ce3576040517f08c379a0000000000000000000000000000000000000000000000000000000008152600401611cda90612a1b565b60405180910390fd5b611cec8161155f565b15611d2c576040517f08c379a0000000000000000000000000000000000000000000000000000000008152600401611d23906128fb565b60405180910390fd5b611d3860008383611c6e565b6001600360008473ffffffffffffffffffffffffffffffffffffffff1673ffffffffffffffffffffffffffffffffffffffff1681526020019081526020016000206000828254611d889190612be0565b92505081905550816002600083815260200190815260200160002060006101000a81548173ffffffffffffffffffffffffffffffffffffffff021916908373ffffffffffffffffffffffffffffffffffffffff160217905550808273ffffffffffffffffffffffffffffffffffffffff16600073ffffffffffffffffffffffffffffffffffffffff167fddf252ad1be2c89b69c2b068fc378daa952ba7f163c4a11628f55a4df523b3ef60405160405180910390a45050565b6000611e628473ffffffffffffffffffffffffffffffffffffffff16611fd8565b15611fcb578373ffffffffffffffffffffffffffffffffffffffff1663150b7a02611e8b6115cb565b8786866040518563ffffffff1660e01b8152600401611ead9493929190612812565b602060405180830381600087803b158015611ec757600080fd5b505af1925050508015611ef857506040513d601f19601f82011682018060405250810190611ef591906123c7565b60015b611f7b573d8060008114611f28576040519150601f19603f3d011682016040523d82523d6000602084013e611f2d565b606091505b50600081511415611f73576040517f08c379a0000000000000000000000000000000000000000000000000000000008152600401611f6a906128bb565b60405180910390fd5b805181602001fd5b63150b7a0260e01b7bffffffffffffffffffffffffffffffffffffffffffffffffffffffff1916817bffffffffffffffffffffffffffffffffffffffffffffffffffffffff191614915050611fd0565b600190505b949350505050565b600080823b905060008111915050919050565b828054611ff790612dab565b90600052602060002090601f0160209004810192826120195760008555612060565b82601f1061203257805160ff1916838001178555612060565b82800160010185558215612060579182015b8281111561205f578251825591602001919060010190612044565b5b50905061206d9190612071565b5090565b5b8082111561208a576000816000905550600101612072565b5090565b60006120a161209c84612b3b565b612b16565b9050828152602081018484840111156120bd576120bc612f78565b5b6120c8848285612d69565b509392505050565b60006120e36120de84612b6c565b612b16565b9050828152602081018484840111156120ff576120fe612f78565b5b61210a848285612d69565b509392505050565b600081359050612121816134dd565b92915050565b600081359050612136816134f4565b92915050565b60008135905061214b8161350b565b92915050565b6000815190506121608161350b565b92915050565b600082601f83011261217b5761217a612f73565b5b813561218b84826020860161208e565b91505092915050565b600082601f8301126121a9576121a8612f73565b5b81356121b98482602086016120d0565b91505092915050565b6000813590506121d181613522565b92915050565b6000602082840312156121ed576121ec612f82565b5b60006121fb84828501612112565b91505092915050565b6000806040838503121561221b5761221a612f82565b5b600061222985828601612112565b925050602061223a85828601612112565b9150509250929050565b60008060006060848603121561225d5761225c612f82565b5b600061226b86828701612112565b935050602061227c86828701612112565b925050604061228d868287016121c2565b9150509250925092565b600080600080608085870312156122b1576122b0612f82565b5b60006122bf87828801612112565b94505060206122d087828801612112565b93505060406122e1878288016121c2565b925050606085013567ffffffffffffffff81111561230257612301612f7d565b5b61230e87828801612166565b91505092959194509250565b6000806040838503121561233157612330612f82565b5b600061233f85828601612112565b925050602061235085828601612127565b9150509250929050565b6000806040838503121561237157612370612f82565b5b600061237f85828601612112565b9250506020612390858286016121c2565b9150509250929050565b6000602082840312156123b0576123af612f82565b5b60006123be8482850161213c565b91505092915050565b6000602082840312156123dd576123dc612f82565b5b60006123eb84828501612151565b91505092915050565b60006020828403121561240a57612409612f82565b5b600082013567ffffffffffffffff81111561242857612427612f7d565b5b61243484828501612194565b91505092915050565b60006020828403121561245357612452612f82565b5b6000612461848285016121c2565b91505092915050565b61247381612cf5565b82525050565b61248281612d07565b82525050565b600061249382612b9d565b61249d8185612bb3565b93506124ad818560208601612d78565b6124b681612f87565b840191505092915050565b60006124cc82612ba8565b6124d68185612bc4565b93506124e6818560208601612d78565b6124ef81612f87565b840191505092915050565b600061250582612ba8565b61250f8185612bd5565b935061251f818560208601612d78565b80840191505092915050565b6000612538604183612bc4565b915061254382612f98565b606082019050919050565b600061255b603283612bc4565b91506125668261300d565b604082019050919050565b600061257e602683612bc4565b91506125898261305c565b604082019050919050565b60006125a1601c83612bc4565b91506125ac826130ab565b602082019050919050565b60006125c4602483612bc4565b91506125cf826130d4565b604082019050919050565b60006125e7601983612bc4565b91506125f282613123565b602082019050919050565b600061260a601683612bc4565b91506126158261314c565b602082019050919050565b600061262d602c83612bc4565b915061263882613175565b604082019050919050565b6000612650602b83612bc4565b915061265b826131c4565b604082019050919050565b6000612673603883612bc4565b915061267e82613213565b604082019050919050565b6000612696602a83612bc4565b91506126a182613262565b604082019050919050565b60006126b9602983612bc4565b91506126c4826132b1565b604082019050919050565b60006126dc602083612bc4565b91506126e782613300565b602082019050919050565b60006126ff602c83612bc4565b915061270a82613329565b604082019050919050565b6000612722602083612bc4565b915061272d82613378565b602082019050919050565b6000612745602983612bc4565b9150612750826133a1565b604082019050919050565b6000612768602f83612bc4565b9150612773826133f0565b604082019050919050565b600061278b602183612bc4565b91506127968261343f565b604082019050919050565b60006127ae603183612bc4565b91506127b98261348e565b604082019050919050565b6127cd81612d5f565b82525050565b60006127df82856124fa565b91506127eb82846124fa565b91508190509392505050565b600060208201905061280c600083018461246a565b92915050565b6000608082019050612827600083018761246a565b612834602083018661246a565b61284160408301856127c4565b81810360608301526128538184612488565b905095945050505050565b60006020820190506128736000830184612479565b92915050565b6000602082019050818103600083015261289381846124c1565b905092915050565b600060208201905081810360008301526128b48161252b565b9050919050565b600060208201905081810360008301526128d48161254e565b9050919050565b600060208201905081810360008301526128f481612571565b9050919050565b6000602082019050818103600083015261291481612594565b9050919050565b60006020820190508181036000830152612934816125b7565b9050919050565b60006020820190508181036000830152612954816125da565b9050919050565b60006020820190508181036000830152612974816125fd565b9050919050565b6000602082019050818103600083015261299481612620565b9050919050565b600060208201905081810360008301526129b481612643565b9050919050565b600060208201905081810360008301526129d481612666565b9050919050565b600060208201905081810360008301526129f481612689565b9050919050565b60006020820190508181036000830152612a14816126ac565b9050919050565b60006020820190508181036000830152612a34816126cf565b9050919050565b60006020820190508181036000830152612a54816126f2565b9050919050565b60006020820190508181036000830152612a7481612715565b9050919050565b60006020820190508181036000830152612a9481612738565b9050919050565b60006020820190508181036000830152612ab48161275b565b9050919050565b60006020820190508181036000830152612ad48161277e565b9050919050565b60006020820190508181036000830152612af4816127a1565b9050919050565b6000602082019050612b1060008301846127c4565b92915050565b6000612b20612b31565b9050612b2c8282612ddd565b919050565b6000604051905090565b600067ffffffffffffffff821115612b5657612b55612f44565b5b612b5f82612f87565b9050602081019050919050565b600067ffffffffffffffff821115612b8757612b86612f44565b5b612b9082612f87565b9050602081019050919050565b600081519050919050565b600081519050919050565b600082825260208201905092915050565b600082825260208201905092915050565b600081905092915050565b6000612beb82612d5f565b9150612bf683612d5f565b9250827fffffffffffffffffffffffffffffffffffffffffffffffffffffffffffffffff03821115612c2b57612c2a612e88565b5b828201905092915050565b6000612c4182612d5f565b9150612c4c83612d5f565b925082612c5c57612c5b612eb7565b5b828204905092915050565b6000612c7282612d5f565b9150612c7d83612d5f565b9250817fffffffffffffffffffffffffffffffffffffffffffffffffffffffffffffffff0483118215151615612cb657612cb5612e88565b5b828202905092915050565b6000612ccc82612d5f565b9150612cd783612d5f565b925082821015612cea57612ce9612e88565b5b828203905092915050565b6000612d0082612d3f565b9050919050565b60008115159050919050565b60007fffffffff0000000000000000000000000000000000000000000000000000000082169050919050565b600073ffffffffffffffffffffffffffffffffffffffff82169050919050565b6000819050919050565b82818337600083830152505050565b60005b83811015612d96578082015181840152602081019050612d7b565b83811115612da5576000848401525b50505050565b60006002820490506001821680612dc357607f821691505b60208210811415612dd757612dd6612ee6565b5b50919050565b612de682612f87565b810181811067ffffffffffffffff82111715612e0557612e04612f44565b5b80604052505050565b6000612e1982612d5f565b91507fffffffffffffffffffffffffffffffffffffffffffffffffffffffffffffffff821415612e4c57612e4b612e88565b5b600182019050919050565b6000612e6282612d5f565b9150612e6d83612d5f565b925082612e7d57612e7c612eb7565b5b828206905092915050565b7f4e487b7100000000000000000000000000000000000000000000000000000000600052601160045260246000fd5b7f4e487b7100000000000000000000000000000000000000000000000000000000600052601260045260246000fd5b7f4e487b7100000000000000000000000000000000000000000000000000000000600052602260045260246000fd5b7f4e487b7100000000000000000000000000000000000000000000000000000000600052603260045260246000fd5b7f4e487b7100000000000000000000000000000000000000000000000000000000600052604160045260246000fd5b600080fd5b600080fd5b600080fd5b600080fd5b6000601f19601f8301169050919050565b7f4e6f7420456e6f75676820457468657220746f20627579204e465473206f722060008201527f54686520627579696e67204e46547320617265206d6f7265207468656e20313060208201527f3000000000000000000000000000000000000000000000000000000000000000604082015250565b7f4552433732313a207472616e7366657220746f206e6f6e20455243373231526560008201527f63656976657220696d706c656d656e7465720000000000000000000000000000602082015250565b7f4f776e61626c653a206e6577206f776e657220697320746865207a65726f206160008201527f6464726573730000000000000000000000000000000000000000000000000000602082015250565b7f4552433732313a20746f6b656e20616c7265616479206d696e74656400000000600082015250565b7f4552433732313a207472616e7366657220746f20746865207a65726f2061646460008201527f7265737300000000000000000000000000000000000000000000000000000000602082015250565b7f4552433732313a20617070726f766520746f2063616c6c657200000000000000600082015250565b7f53616c65206973204f66662063757272656e746c792e00000000000000000000600082015250565b7f4552433732313a206f70657261746f7220717565727920666f72206e6f6e657860008201527f697374656e7420746f6b656e0000000000000000000000000000000000000000602082015250565b7f5468652073616c652068617320746f206265206c657373206f7220657175616c60008201527f20746f2033302064617973000000000000000000000000000000000000000000602082015250565b7f4552433732313a20617070726f76652063616c6c6572206973206e6f74206f7760008201527f6e6572206e6f7220617070726f76656420666f7220616c6c0000000000000000602082015250565b7f4552433732313a2062616c616e636520717565727920666f7220746865207a6560008201527f726f206164647265737300000000000000000000000000000000000000000000602082015250565b7f4552433732313a206f776e657220717565727920666f72206e6f6e657869737460008201527f656e7420746f6b656e0000000000000000000000000000000000000000000000602082015250565b7f4552433732313a206d696e7420746f20746865207a65726f2061646472657373600082015250565b7f4552433732313a20617070726f76656420717565727920666f72206e6f6e657860008201527f697374656e7420746f6b656e0000000000000000000000000000000000000000602082015250565b7f4f776e61626c653a2063616c6c6572206973206e6f7420746865206f776e6572600082015250565b7f4552433732313a207472616e73666572206f6620746f6b656e2074686174206960008201527f73206e6f74206f776e0000000000000000000000000000000000000000000000602082015250565b7f4552433732314d657461646174613a2055524920717565727920666f72206e6f60008201527f6e6578697374656e7420746f6b656e0000000000000000000000000000000000602082015250565b7f4552433732313a20617070726f76616c20746f2063757272656e74206f776e6560008201527f7200000000000000000000000000000000000000000000000000000000000000602082015250565b7f4552433732313a207472616e736665722063616c6c6572206973206e6f74206f60008201527f776e6572206e6f7220617070726f766564000000000000000000000000000000602082015250565b6134e681612cf5565b81146134f157600080fd5b50565b6134fd81612d07565b811461350857600080fd5b50565b61351481612d13565b811461351f57600080fd5b50565b61352b81612d5f565b811461353657600080fd5b5056fea2646970667358221220baf6905785c409f9afb27ea96314afa8f3bce6f86bfe8b1a42d1d5f6570d89e164736f6c63430008070033",
  "immutableReferences": {},
  "source": "//SPDX-License-Identifier: Unlicense\n\npragma solidity ^0.8.7;\n/*\n\nCreate an ERC721 Token with the following requirements\n\nuser can only buy tokens when the sale is started\nthe sale should be ended within 30 days\nthe owner can set base URI\nthe owner can set the price of NFT\nNFT minting hard limit is 100\n\n*/\nimport \"@openzeppelin/contracts/token/ERC721/IERC721.sol\";\nimport \"@openzeppelin/contracts/token/ERC721/IERC721Receiver.sol\";\nimport \"@openzeppelin/contracts/token/ERC721/extensions/IERC721Metadata.sol\";\nimport \"@openzeppelin/contracts/utils/Address.sol\";\nimport \"@openzeppelin/contracts/utils/Context.sol\";\nimport \"@openzeppelin/contracts/utils/Strings.sol\";\nimport \"@openzeppelin/contracts/utils/introspection/ERC165.sol\";\n\ncontract ERC721 is Context, ERC165, IERC721, IERC721Metadata {\n    using Address for address;\n    using Strings for uint256;\n\n    // Token name\n    string private _name;\n\n    // Token symbol\n    string private _symbol;\n\n    // Mapping from token ID to owner address\n    mapping(uint256 => address) private _owners;\n\n    // Mapping owner address to token count\n    mapping(address => uint256) private _balances;\n\n    // Mapping from token ID to approved address\n    mapping(uint256 => address) private _tokenApprovals;\n\n    // Mapping from owner to operator approvals\n    mapping(address => mapping(address => bool)) private _operatorApprovals;\n\n    /**\n     * @dev Initializes the contract by setting a `name` and a `symbol` to the token collection.\n     */\n    constructor(string memory name_, string memory symbol_) {\n        _name = name_;\n        _symbol = symbol_;\n    }\n\n    /**\n     * @dev See {IERC165-supportsInterface}.\n     */\n    function supportsInterface(bytes4 interfaceId) public view virtual override(ERC165, IERC165) returns (bool) {\n        return\n            interfaceId == type(IERC721).interfaceId ||\n            interfaceId == type(IERC721Metadata).interfaceId ||\n            super.supportsInterface(interfaceId);\n    }\n\n    /**\n     * @dev See {IERC721-balanceOf}.\n     */\n    function balanceOf(address owner) public view virtual override returns (uint256) {\n        require(owner != address(0), \"ERC721: balance query for the zero address\");\n        return _balances[owner];\n    }\n\n    /**\n     * @dev See {IERC721-ownerOf}.\n     */\n    function ownerOf(uint256 tokenId) public view virtual override returns (address) {\n        address owner = _owners[tokenId];\n        require(owner != address(0), \"ERC721: owner query for nonexistent token\");\n        return owner;\n    }\n\n    /**\n     * @dev See {IERC721Metadata-name}.\n     */\n    function name() public view virtual override returns (string memory) {\n        return _name;\n    }\n\n    /**\n     * @dev See {IERC721Metadata-symbol}.\n     */\n    function symbol() public view virtual override returns (string memory) {\n        return _symbol;\n    }\n\n    /**\n     * @dev See {IERC721Metadata-tokenURI}.\n     */\n    function tokenURI(uint256 tokenId) public view virtual override returns (string memory) {\n        require(_exists(tokenId), \"ERC721Metadata: URI query for nonexistent token\");\n\n        string memory baseURI = _baseURI();\n        return bytes(baseURI).length > 0 ? string(abi.encodePacked(baseURI, tokenId.toString())) : \"\";\n    }\n\n    /**\n     * @dev Base URI for computing {tokenURI}. If set, the resulting URI for each\n     * token will be the concatenation of the `baseURI` and the `tokenId`. Empty\n     * by default, can be overriden in child contracts.\n     */\n    function _baseURI() internal view virtual returns (string memory) {\n        return \"\";\n    }\n\n    /**\n     * @dev See {IERC721-approve}.\n     */\n    function approve(address to, uint256 tokenId) public virtual override {\n        address owner = ERC721.ownerOf(tokenId);\n        require(to != owner, \"ERC721: approval to current owner\");\n\n        require(\n            _msgSender() == owner || isApprovedForAll(owner, _msgSender()),\n            \"ERC721: approve caller is not owner nor approved for all\"\n        );\n\n        _approve(to, tokenId);\n    }\n\n    /**\n     * @dev See {IERC721-getApproved}.\n     */\n    function getApproved(uint256 tokenId) public view virtual override returns (address) {\n        require(_exists(tokenId), \"ERC721: approved query for nonexistent token\");\n\n        return _tokenApprovals[tokenId];\n    }\n\n    /**\n     * @dev See {IERC721-setApprovalForAll}.\n     */\n    function setApprovalForAll(address operator, bool approved) public virtual override {\n        require(operator != _msgSender(), \"ERC721: approve to caller\");\n\n        _operatorApprovals[_msgSender()][operator] = approved;\n        emit ApprovalForAll(_msgSender(), operator, approved);\n    }\n\n    /**\n     * @dev See {IERC721-isApprovedForAll}.\n     */\n    function isApprovedForAll(address owner, address operator) public view virtual override returns (bool) {\n        return _operatorApprovals[owner][operator];\n    }\n\n    /**\n     * @dev See {IERC721-transferFrom}.\n     */\n    function transferFrom(\n        address from,\n        address to,\n        uint256 tokenId\n    ) public virtual override {\n        //solhint-disable-next-line max-line-length\n        require(_isApprovedOrOwner(_msgSender(), tokenId), \"ERC721: transfer caller is not owner nor approved\");\n\n        _transfer(from, to, tokenId);\n    }\n\n    /**\n     * @dev See {IERC721-safeTransferFrom}.\n     */\n    function safeTransferFrom(\n        address from,\n        address to,\n        uint256 tokenId\n    ) public virtual override {\n        safeTransferFrom(from, to, tokenId, \"\");\n    }\n\n    /**\n     * @dev See {IERC721-safeTransferFrom}.\n     */\n    function safeTransferFrom(\n        address from,\n        address to,\n        uint256 tokenId,\n        bytes memory _data\n    ) public virtual override {\n        require(_isApprovedOrOwner(_msgSender(), tokenId), \"ERC721: transfer caller is not owner nor approved\");\n        _safeTransfer(from, to, tokenId, _data);\n    }\n\n    /**\n     * @dev Safely transfers `tokenId` token from `from` to `to`, checking first that contract recipients\n     * are aware of the ERC721 protocol to prevent tokens from being forever locked.\n     *\n     * `_data` is additional data, it has no specified format and it is sent in call to `to`.\n     *\n     * This internal function is equivalent to {safeTransferFrom}, and can be used to e.g.\n     * implement alternative mechanisms to perform token transfer, such as signature-based.\n     *\n     * Requirements:\n     *\n     * - `from` cannot be the zero address.\n     * - `to` cannot be the zero address.\n     * - `tokenId` token must exist and be owned by `from`.\n     * - If `to` refers to a smart contract, it must implement {IERC721Receiver-onERC721Received}, which is called upon a safe transfer.\n     *\n     * Emits a {Transfer} event.\n     */\n    function _safeTransfer(\n        address from,\n        address to,\n        uint256 tokenId,\n        bytes memory _data\n    ) internal virtual {\n        _transfer(from, to, tokenId);\n        require(_checkOnERC721Received(from, to, tokenId, _data), \"ERC721: transfer to non ERC721Receiver implementer\");\n    }\n\n    /**\n     * @dev Returns whether `tokenId` exists.\n     *\n     * Tokens can be managed by their owner or approved accounts via {approve} or {setApprovalForAll}.\n     *\n     * Tokens start existing when they are minted (`_mint`),\n     * and stop existing when they are burned (`_burn`).\n     */\n    function _exists(uint256 tokenId) internal view virtual returns (bool) {\n        return _owners[tokenId] != address(0);\n    }\n\n    /**\n     * @dev Returns whether `spender` is allowed to manage `tokenId`.\n     *\n     * Requirements:\n     *\n     * - `tokenId` must exist.\n     */\n    function _isApprovedOrOwner(address spender, uint256 tokenId) internal view virtual returns (bool) {\n        require(_exists(tokenId), \"ERC721: operator query for nonexistent token\");\n        address owner = ERC721.ownerOf(tokenId);\n        return (spender == owner || getApproved(tokenId) == spender || isApprovedForAll(owner, spender));\n    }\n\n    /**\n     * @dev Safely mints `tokenId` and transfers it to `to`.\n     *\n     * Requirements:\n     *\n     * - `tokenId` must not exist.\n     * - If `to` refers to a smart contract, it must implement {IERC721Receiver-onERC721Received}, which is called upon a safe transfer.\n     *\n     * Emits a {Transfer} event.\n     */\n    function _safeMint(address to, uint256 tokenId) internal virtual {\n        _safeMint(to, tokenId, \"\");\n    }\n\n    /**\n     * @dev Same as {xref-ERC721-_safeMint-address-uint256-}[`_safeMint`], with an additional `data` parameter which is\n     * forwarded in {IERC721Receiver-onERC721Received} to contract recipients.\n     */\n    function _safeMint(\n        address to,\n        uint256 tokenId,\n        bytes memory _data\n    ) internal virtual {\n        _mint(to, tokenId);\n        require(\n            _checkOnERC721Received(address(0), to, tokenId, _data),\n            \"ERC721: transfer to non ERC721Receiver implementer\"\n        );\n    }\n\n    /**\n     * @dev Mints `tokenId` and transfers it to `to`.\n     *\n     * WARNING: Usage of this method is discouraged, use {_safeMint} whenever possible\n     *\n     * Requirements:\n     *\n     * - `tokenId` must not exist.\n     * - `to` cannot be the zero address.\n     *\n     * Emits a {Transfer} event.\n     */\n    function _mint(address to, uint256 tokenId) internal virtual {\n        require(to != address(0), \"ERC721: mint to the zero address\");\n        require(!_exists(tokenId), \"ERC721: token already minted\");\n\n        _beforeTokenTransfer(address(0), to, tokenId);\n\n        _balances[to] += 1;\n        _owners[tokenId] = to;\n\n        emit Transfer(address(0), to, tokenId);\n    }\n\n    /**\n     * @dev Destroys `tokenId`.\n     * The approval is cleared when the token is burned.\n     *\n     * Requirements:\n     *\n     * - `tokenId` must exist.\n     *\n     * Emits a {Transfer} event.\n     */\n    function _burn(uint256 tokenId) internal virtual {\n        address owner = ERC721.ownerOf(tokenId);\n\n        _beforeTokenTransfer(owner, address(0), tokenId);\n\n        // Clear approvals\n        _approve(address(0), tokenId);\n\n        _balances[owner] -= 1;\n        delete _owners[tokenId];\n\n        emit Transfer(owner, address(0), tokenId);\n    }\n\n    /**\n     * @dev Transfers `tokenId` from `from` to `to`.\n     *  As opposed to {transferFrom}, this imposes no restrictions on msg.sender.\n     *\n     * Requirements:\n     *\n     * - `to` cannot be the zero address.\n     * - `tokenId` token must be owned by `from`.\n     *\n     * Emits a {Transfer} event.\n     */\n    function _transfer(\n        address from,\n        address to,\n        uint256 tokenId\n    ) internal virtual {\n        require(ERC721.ownerOf(tokenId) == from, \"ERC721: transfer of token that is not own\");\n        require(to != address(0), \"ERC721: transfer to the zero address\");\n\n        _beforeTokenTransfer(from, to, tokenId);\n\n        // Clear approvals from the previous owner\n        _approve(address(0), tokenId);\n\n        _balances[from] -= 1;\n        _balances[to] += 1;\n        _owners[tokenId] = to;\n\n        emit Transfer(from, to, tokenId);\n    }\n\n    /**\n     * @dev Approve `to` to operate on `tokenId`\n     *\n     * Emits a {Approval} event.\n     */\n    function _approve(address to, uint256 tokenId) internal virtual {\n        _tokenApprovals[tokenId] = to;\n        emit Approval(ERC721.ownerOf(tokenId), to, tokenId);\n    }\n\n    /**\n     * @dev Internal function to invoke {IERC721Receiver-onERC721Received} on a target address.\n     * The call is not executed if the target address is not a contract.\n     *\n     * @param from address representing the previous owner of the given token ID\n     * @param to target address that will receive the tokens\n     * @param tokenId uint256 ID of the token to be transferred\n     * @param _data bytes optional data to send along with the call\n     * @return bool whether the call correctly returned the expected magic value\n     */\n    function _checkOnERC721Received(\n        address from,\n        address to,\n        uint256 tokenId,\n        bytes memory _data\n    ) private returns (bool) {\n        if (to.isContract()) {\n            try IERC721Receiver(to).onERC721Received(_msgSender(), from, tokenId, _data) returns (bytes4 retval) {\n                return retval == IERC721Receiver.onERC721Received.selector;\n            } catch (bytes memory reason) {\n                if (reason.length == 0) {\n                    revert(\"ERC721: transfer to non ERC721Receiver implementer\");\n                } else {\n                    assembly {\n                        revert(add(32, reason), mload(reason))\n                    }\n                }\n            }\n        } else {\n            return true;\n        }\n    }\n\n    /**\n     * @dev Hook that is called before any token transfer. This includes minting\n     * and burning.\n     *\n     * Calling conditions:\n     *\n     * - When `from` and `to` are both non-zero, ``from``'s `tokenId` will be\n     * transferred to `to`.\n     * - When `from` is zero, `tokenId` will be minted for `to`.\n     * - When `to` is zero, ``from``'s `tokenId` will be burned.\n     * - `from` and `to` are never both zero.\n     *\n     * To learn more about hooks, head to xref:ROOT:extending-contracts.adoc#using-hooks[Using Hooks].\n     */\n    function _beforeTokenTransfer(\n        address from,\n        address to,\n        uint256 tokenId\n    ) internal virtual {}\n}\n\n\n/**\n * @dev Contract module which provides a basic access control mechanism, where\n * there is an account (an owner) that can be granted exclusive access to\n * specific functions.\n *\n * By default, the owner account will be the one that deploys the contract. This\n * can later be changed with {transferOwnership}.\n *\n * This module is used through inheritance. It will make available the modifier\n * `onlyOwner`, which can be applied to your functions to restrict their use to\n * the owner.\n */\nabstract contract Ownable is Context {\n    address private _owner;\n\n    event OwnershipTransferred(address indexed previousOwner, address indexed newOwner);\n\n    /**\n     * @dev Initializes the contract setting the deployer as the initial owner.\n     */\n    constructor() {\n        _setOwner(_msgSender());\n    }\n\n    /**\n     * @dev Returns the address of the current owner.\n     */\n    function owner() public view virtual returns (address) {\n        return _owner;\n    }\n\n    /**\n     * @dev Throws if called by any account other than the owner.\n     */\n    modifier onlyOwner() {\n        require(owner() == _msgSender(), \"Ownable: caller is not the owner\");\n        _;\n    }\n\n    /**\n     * @dev Leaves the contract without owner. It will not be possible to call\n     * `onlyOwner` functions anymore. Can only be called by the current owner.\n     *\n     * NOTE: Renouncing ownership will leave the contract without an owner,\n     * thereby removing any functionality that is only available to the owner.\n     */\n    function renounceOwnership() public virtual onlyOwner {\n        _setOwner(address(0));\n    }\n\n    /**\n     * @dev Transfers ownership of the contract to a new account (`newOwner`).\n     * Can only be called by the current owner.\n     */\n    function transferOwnership(address newOwner) public virtual onlyOwner {\n        require(newOwner != address(0), \"Ownable: new owner is the zero address\");\n        _setOwner(newOwner);\n    }\n\n    function _setOwner(address newOwner) private {\n        address oldOwner = _owner;\n        _owner = newOwner;\n        emit OwnershipTransferred(oldOwner, newOwner);\n    }\n}\n\ncontract AXY721 is ERC721,Ownable{\n    \n    string public baseURI = \"https://floydnft.com/token/&quot\";\n    uint public salePrice;\n    uint public hardLimit = 100;\n    uint public currentPublicTokenID = 0;\n    bool public saleStart;\n    string _tokenName = \"AXY Token\";\n    string _tokenSymbol = \"AXY\";\n\n    constructor() ERC721(_tokenName, _tokenSymbol){\n        salePrice = 10;\n        saleStart = false;\n    }\n    \nmodifier _saleStatus() {\n    require(saleStart,\"Sale is Off currently.\");\n    _;\n}\n    // ___________________ Starting the sale ________________________\n  function startSale(uint _saleDays) public onlyOwner{\n      require(_saleDays <= 30 days,\"The sale has to be less or equal to 30 days\");\n      saleStart = true;\n  }  \n  // ___________________ Stoping the sale ________________________\n  function stopSale() public _saleStatus onlyOwner{\n      saleStart = false;\n  }  \n  \n  //_____________________ Buying NFT ________________________\n  function mintNdIncrementSupply(address to, uint tokenID) internal{\n         _mint(to,tokenID);\n    }\n    \n    \n  function buyAXYToken(uint _quantity) payable external _saleStatus {\n        require(msg.value >= salePrice * _quantity && currentPublicTokenID + _quantity <= 100, \"Not Enough Ether to buy NFTs or The buying NFTs are more then 100\");\n        \n        for(uint i = 1; i<= _quantity; i++){\n            currentPublicTokenID++;\n            mintNdIncrementSupply(msg.sender, currentPublicTokenID);\n        }\n  }\n  \n  // ______________________ Setting URL _______________________\n  function setURL(string memory url) public onlyOwner{\n      baseURI = url;\n    }\n    \n    // ______________________ Setting Price _______________________\n  function setPrice(uint _price) public onlyOwner{\n      salePrice = _price;\n    }\n}",
  "sourcePath": "D:\\25 - Testing Q3\\Assignments\\Truffle - ERC721 AXY NFT\\contracts\\AXY721.sol",
  "compiler": {
    "name": "solc",
    "version": "0.8.7+commit.e28d00a7.Emscripten.clang"
  },
  "schemaVersion": "3.4.3",
  "updatedAt": "2021-09-11T15:14:06.481Z",
  "networkType": "ethereum",
  "devdoc": {
    "kind": "dev",
    "methods": {
      "approve(address,uint256)": {
        "details": "See {IERC721-approve}."
      },
      "balanceOf(address)": {
        "details": "See {IERC721-balanceOf}."
      },
      "getApproved(uint256)": {
        "details": "See {IERC721-getApproved}."
      },
      "isApprovedForAll(address,address)": {
        "details": "See {IERC721-isApprovedForAll}."
      },
      "name()": {
        "details": "See {IERC721Metadata-name}."
      },
      "owner()": {
        "details": "Returns the address of the current owner."
      },
      "ownerOf(uint256)": {
        "details": "See {IERC721-ownerOf}."
      },
      "renounceOwnership()": {
        "details": "Leaves the contract without owner. It will not be possible to call `onlyOwner` functions anymore. Can only be called by the current owner. NOTE: Renouncing ownership will leave the contract without an owner, thereby removing any functionality that is only available to the owner."
      },
      "safeTransferFrom(address,address,uint256)": {
        "details": "See {IERC721-safeTransferFrom}."
      },
      "safeTransferFrom(address,address,uint256,bytes)": {
        "details": "See {IERC721-safeTransferFrom}."
      },
      "setApprovalForAll(address,bool)": {
        "details": "See {IERC721-setApprovalForAll}."
      },
      "supportsInterface(bytes4)": {
        "details": "See {IERC165-supportsInterface}."
      },
      "symbol()": {
        "details": "See {IERC721Metadata-symbol}."
      },
      "tokenURI(uint256)": {
        "details": "See {IERC721Metadata-tokenURI}."
      },
      "transferFrom(address,address,uint256)": {
        "details": "See {IERC721-transferFrom}."
      },
      "transferOwnership(address)": {
        "details": "Transfers ownership of the contract to a new account (`newOwner`). Can only be called by the current owner."
      }
    },
    "version": 1
  },
  "userdoc": {
    "kind": "user",
    "methods": {},
    "version": 1
  }
}